:020000040800F2
:10000000B00E00203D0200084F2A0008D526000847
:100010004D2A0008C5060008A13D000800000000A8
:10002000000000000000000000000000ED2D0008AE
:10003000F5070008000000005D2A0008EF2D000809
:10004000570200085702000857020008570200082C
:10005000570200085702000857020008570200081C
:10006000570200085702000857020008570200080C
:1000700057020008570200085702000857020008FC
:10008000570200085702000857020008000000004D
:1000900000000000000000000000000057020008FF
:1000A00057020008570200085702000857020008CC
:1000B00057020008570200085702000857020008BC
:1000C000570200085702000857020008892A000852
:1000D00057020008570200085702000800000000FD
:1000E00057020008570200085702000800000000ED
:1000F000000000000000000000000000570200089F
:1001000000000000570200085702000857020008CC
:1001100000000000000000000000000000000000DF
:10012000570200085702000857020008570200084B
:10013000570200080000000000000000000000005E
:10014000000000000000000000000000512A00082C
:10015000570200085702000857020008570200081B
:1001600057020008570200080000000000000000CD
:10017000000000000000000000000000000000007F
:10018000000000005702000800000000000000000E
:100190005702000800F002F800F040F80AA090E8CA
:1001A000000C82448344AAF10107DA4501D100F032
:1001B00035F8AFF2090EBAE80F0013F0010F18BFBF
:1001C000FB1A43F001031847FC3C00001C3D0000F3
:1001D000103A24BF78C878C1FAD8520724BF30C873
:1001E00030C144BF04680C60704700000023002445
:1001F00000250026103A28BF78C1FBD8520728BF37
:1002000030C148BF0B6070471FB503F047FE9DE843
:10021000030000F079F91FBD10B510BD00F0D0F952
:100220001146FFF7F1FF03F0CDFD00F0EEF903B446
:10023000FFF7F2FF03BC00F01FFA000009488047F7
:1002400009480047FEE7FEE7FEE7FEE7FEE7FEE7B8
:10025000FEE7FEE7FEE7FEE704480549054A064BD0
:10026000704700008D2E000895010008B00800209E
:10027000B00E0020B00A0020B00A002070B506467B
:1002800000F026F9056806F10B0020F00704B442DF
:100290009CBF002070BD2B466A68BAB11068A042AE
:1002A00010D304F1080188423CBF5068586007D35E
:1002B0005168101941601168091B01605860146091
:1002C000101D70BD13465268002AE7D1214628460A
:1002D00000F006F90028DED170BD70B50446051F98
:1002E00000F0F6F80068002C14BF446870BD002CC4
:1002F00018BFAC423CBF20466468F8D301680A18B6
:10030000AA4218BF456003D12A680546114401601E
:1003100028684119A1421CBF6C6070BD61686960AA
:1003200021680844286070BD53EA020C00F069801F
:100330002DE9F04B4FF00006002B1FBFB3FA83F5F9
:1003400003FA05F424FA05F65E4012BF1643B2FA2A
:1003500082F502FA05F4C5F120051EBF22FA05FC5C
:1003600044EA0C04203556EA044C4FEA144418BF02
:10037000641C4FF000084FF00009904271EB030C31
:1003800039D3002919BFB1FA81F701FA07F6B0FA9B
:1003900080F700FA07F6C7F120071EBF20FA07FC16
:1003A00046EA0C062037B6FBF4FCA7EB0507103F26
:1003B00007F01F0BCBF120060CFA0BFB2CFA06F60C
:1003C00044BFB3460026202FA4BF5E464FF0000B6B
:1003D0005BEA060C08BF4FF0010B19EB0B09ABFBF6
:1003E000027C48EB0608C01B06FB02CC0BFB03CCCF
:1003F00071EB0C01C1E70B46024641464846BDE899
:10040000F08B13B54FF000004FF00001AFF3008008
:10041000BDE81C40704710B5203AC0F00B80B1E831
:100420001850203AA0E81850B1E81850A0E8185029
:10043000BFF4F5AF5FEA027C24BFB1E81850A0E832
:10044000185044BF18C918C0BDE810405FEA827C4C
:1004500024BF51F8043B40F8043B08BF7047D20763
:1004600028BF31F8023B48BF11F8012B28BF20F804
:10047000023B48BF00F8012B70474FF0000200B567
:10048000134694469646203922BFA0E80C50A0E8B7
:100490000C50B1F12001BFF4F7AF090728BFA0E865
:1004A0000C5048BF0CC05DF804EB890028BF40F831
:1004B000042B08BF704748BF20F8022B11F0804F73
:1004C00018BF00F8012B7047704770477047000055
:1004D00000487047580800207047704770477047C1
:1004E00038B504460A4600206946AFF3008000286C
:1004F00008BF38BD02460099204600F03FF80120B1
:1005000038BD012000F054B8F8B5AFF300800546BF
:1005100000200C46102000BF0646A819A0420DD9A5
:10052000324669460020AFF30080070008BF00F0A4
:100530003FF80098A04218BF0546C419FFF7C8FF4E
:1005400005600746F01D20F007004619284600F018
:100550000AF8B44208BFF8BDA21B31463868BDE8AE
:10056000F84000F00BB800210160C0E901107047AD
:10057000102070470048704750080020034640682C
:100580008C46002818BF88423CBF03464068F8D319
:1005900018681844884207D00CF1030020F00700C7
:1005A000001D411A521A0146081D0A60FFF795BE48
:1005B00010B500F039F8BDE8104000F02FB87047D2
:1005C0007546FFF7D7FFAE4605006946534620F053
:1005D0000700854618B020B5FFF73EFEBDE8204075
:1005E0004FF000064FF000074FF000084FF0000BEF
:1005F00021F00701AC46ACE8C009ACE8C009ACE8A2
:10060000C009ACE8C0098D46704710B50446AFF389
:1006100000802046BDE81040FFF709BE002801D049
:1006200000F02AB87047000010B5012805D000215D
:1006300003A000F027F8012010BD09A1F8E7000091
:1006400053494752544D454D3A204F7574206F66BB
:100650002068656170206D656D6F72790000000023
:100660003A2048656170206D656D6F727920636F07
:10067000727275707465640001491820ABBEFEE7A4
:100680002600020070B505460C460A2000E06D1CED
:1006900000F011F835B128780028F8D102E0641C88
:1006A00000F009F814B120780028F8D1BDE87040B6
:1006B0000A20AFF3008008B569468DF800000320DA
:1006C000ABBE08BDFEE7000070B50546D0F87C0360
:1006D000C46994F84E0003281BD0042818D1217B4C
:1006E000284602F020FF012812D1217B284602F083
:1006F00016FFA16A814214D0628B824211D2091A7C
:10070000A162216A084420625FF0030084F84E0071
:1007100070BD237B628B2846216A02F0DBFB04203C
:10072000F4E7002084F84E00284602F037FD70BD43
:10073000F8B50646D0F87C030125C46994F84D004D
:1007400001280AD0022807D1617B304602F0EBFE77
:10075000012811D002281AD0F8BD228B606A0095BA
:10076000637B904200D882B23046E16902F0C2FB5E
:10077000022084F84D00F8BD208B626A002182427D
:1007800008D9121A6262E3691844E06103D084F860
:100790004D50F8BD616284F84D10304602F001FD05
:1007A000F8BD000010B500224FEA020100EB820301
:1007B000521CC3F884130F2AF8D300224FF400739D
:1007C0008418521C84F81C119A42F9D301704170AC
:1007D00001228270C0F8C4130276402383714176EF
:1007E00080F81C1380F81D2380F81F1380F81E1357
:1007F000002010BD704772B6FEE7A12202742122CC
:1008000042740022428282820722C28202F0EDBC40
:1008100090F83510022903D08021416501207047EE
:10082000052180F835100068016821F001010160A0
:100830000020704770B5044600F004F90546601CBE
:1008400002D004480078044400F0FCF8401BA042A9
:10085000FAD370BD080000202DE9F84FDFF8B8A1E9
:10086000002201240AF1040B03254FF00F090BF1BC
:10087000040E00BF0B6804FA02F63340B34273D192
:100880000F7907F00307012F01D0022F16D18768D7
:100890004FEA420805FA08FC27EA0C07D1F80CC019
:1008A0000CFA08FC4CEA070CC0F808C04768B743CC
:1008B0000E79C6F3001696403E4346600E79F64325
:1008C000B6070DD0C768560005FA06FC27EA0C07E4
:1008D000D1F808C00CFA06FC4CEA070CC0F80CC0B2
:1008E0000E7906F00306022E10D1D60800EB86081A
:1008F000D8F8206057074FEAD76C09FA0CF7BE43C7
:100900000F6907FA0CF73743C8F8207006684FEAFA
:10091000420C05FA0CF7BE430F7907F0030707FAFC
:100920000CF7374307604E6816F4403F6DD03B4EDE
:10093000376847F480473760366822F0030706F4CB
:1009400080460096364E07EB060CDCF808689707E1
:100950003F0F09FA07F826EA0806DFF8C880404585
:1009600003D14FF000081EE04FE0DFF8BC804045A7
:1009700002D14FF0010816E0DFF8B080404502D107
:100980004FF002080FE0DFF8A880404502D14FF099
:10099000030808E0DFF89C80404502D14FF00408CE
:1009A00001E04FF0070808FA07F848EA0608CCF813
:1009B0000888DAF800605746D1F804C09E435FEA21
:1009C000CC3C00D51E433E60DBF800605F46D1F8AA
:1009D00004C09E435FEA8C3C00D51E433E60DEF8B7
:1009E00000607746D1F804C09E435FEACC2C00D566
:1009F0001E433E60084F0C373E68D1F804C09E434A
:100A00005FEA8C2C00D51E433E60521C102AFFF476
:100A100031AFBDE8F88F0000003C0140443802408F
:100A20000030014000000240000402400008024083
:100A3000000C0240001002400AB1816170470904B5
:100A4000FBE70000014880687047000008000020B4
:100A5000D0F8000302F035BDD0F8000302F03BBD32
:100A6000006802F0DFBE01EB410202EBC10100EBC6
:100A7000810090F86000704701EB410202EBC10178
:100A800000EB8100006D704710B5044690F8F80245
:100A9000012809D0012084F8F802206802F0D1FE74
:100AA000002084F8F80210BD022010BD2DE9FE439D
:100AB0000546DDE90B7095F8F842DDF828C0012CF9
:100AC0001ED001EB410404EBC1044FF0010905EB1A
:100AD000840485F8F892002684F83D6084F8383064
:100AE000A4F8400084F8391084F83F7002F07F08C1
:100AF00084F83A805FEA026805D584F83B9004E008
:100B00000220BDE8FE8384F83B6084F83CC0CDF849
:100B100000C0CDE90170286802F000FF85F8F86296
:100B2000EFE770472DE9F00301EB4104DDE906C969
:100B3000DDE9087504EBC10400EB8404022684F8A7
:100B40003B2084F83F30BCF1000F0AD084F84260AB
:100B500000256BB1012B2FD0022B12D0032B16D105
:100B60000FE04FF0030884F8428084F83D50EFE72F
:100B7000BCF1010F0BD152B9DFB9012284F8552025
:100B800003E0B2B194F85420B2B184F84260C4F8E2
:100B90004490E76484F86050256584F8391084F83F
:100BA0006150027C04F138010068BDE8F00302F0F6
:100BB00036BF94F85520E7E784F84250E7E72DE97F
:100BC000F04106680446304602F037FE012875D130
:100BD000206803F040F8002870D0206803F03BF84C
:100BE000800203D521684FF400104861206803F0AB
:100BF00032F8C00203D521684FF4801048612068A4
:100C000003F029F8400103D521684FF08060486166
:100C1000206803F020F8800702D52168022048618F
:100C2000206803F018F8800015D521684FF00050B7
:100C30004861D6F84004C0070DD11021304602F0BB
:100C4000DBFD304602F0C4FD0121206802F0E8FF20
:100C50002046FFF701FF206802F0FDFFC00102D52A
:100C6000204601F0A7FC206802F0F5FF000705D53B
:100C7000204600F0CFF8216808204861206802F083
:100C8000EAFFC043C0060CD42068816921F010013E
:100C90008161204601F0D8FC2068816941F0100193
:100CA0008161206802F0D7FF800123D5206802F01F
:100CB000B2FE074600254FF0010814E01AE005F0E7
:100CC0000F0108FA01F038420CD006EB4510D0F8BD
:100CD0000005E9B20004204602D501F0D8F901E090
:100CE00001F013FB6D1CA068A842E8D821684FF002
:100CF00000704861BDE8F08170B58AB0040005D08D
:100D000094F8F9022568002618B107E001200AB01E
:100D100070BD84F8F862204600F028F8032084F8BB
:100D2000F902E86BC00500D42661206802F01CFDC2
:100D300004F1100128220D466846FFF76CFB94E889
:100D40000F0002F0B7FC0121206802F0A7FF282263
:100D500029466846FFF75FFB94E80F0002F000FFAA
:100D6000012084F8F9020020D1E7000030B587B0F7
:100D7000044614216846FFF780FB2068B0F1A04FBD
:100D800039D11E480024016841F00101016000686A
:100D90001B4D00F0010005904FF40070CDE90004F8
:100DA000694628460294FFF757FD4FF4E050009043
:100DB0000220CDE90104032003900A200490694633
:100DC0002846FFF749FD0D48001D016841F08001EC
:100DD00001600A481430016841F4804101600068F4
:100DE000002200F4804005901146432000F0D0FB23
:100DF000432000F0BFFB07B030BD00003038024098
:100E000000000240D0F8000302F0D6BBD0F8000387
:100E100002F0D6BBD0F8000302F089BB10B504463F
:100E200090F8F80201280DD0012084F8F802012181
:100E3000206802F0B1FC206802F0C4FC002084F8B5
:100E4000F80210BD022010BD10B5044690F8F8025B
:100E5000012809D0012084F8F802206802F04CFF34
:100E6000002084F8F80210BD022010BD70B5040007
:100E700025D094F83D00002520B984F83C50204648
:100E800000F0B8F8242084F83D002068016821F0C3
:100E9000010101602068016841F40041016020689F
:100EA000016821F40041016000F014FD4D4A6168C1
:100EB000914201D84C4900E04C49884201D20120BE
:100EC00070BD4B492368B0FBF1F15E6826F03F0628
:100ED0000E435E606368934206D94FF4967359439C
:100EE0004FF47A73B1FBF3F12368491C1E6A26F0B4
:100EF0003F06314319626168914210D84900401E93
:100F0000B0FBF1F2521CC2F30B02042A01D20420FE
:100F100022E0B0FBF1F0401CC0F30B001CE0A26823
:100F2000F2B301EBC10303EB0116431EB3FBF6F36F
:100F30005B1C43F480431B0549D092B301EBC10213
:100F400002EB0111401EB0FBF1F0401CC0F30B009E
:100F500040F4804040F400402168CA694CF6FF73B9
:100F60009A431043C861D4E907100143206802681E
:100F700022F0C00211430160D4E90301014320685B
:100F8000826848F2FF339A4311438160D4E9050136
:100F900008432168CA6822F0FF021043C86001E0DC
:100FA0000EE016E02068016841F00101016025644F
:100FB000202084F83D00256384F83E50002070BD59
:100FC00001EB4106431EB3FBF6F35B1CB3E70120C4
:100FD000C2E701EB4101401EB0FBF1F0401CC0F341
:100FE0000B00B7E7A086010080841E0000093D00C9
:100FF00040420F0010B586B0044614216846FFF742
:101000003CFA14492068884221D113480021026823
:1010100042F002020260006800F0020005904FF406
:1010200010700090122001900120CDE902010420EF
:10103000049069460948FFF70FFC07481030016823
:1010400041F400110160006800F40010059006B042
:1010500010BD00000054004030380240000402403F
:101060002DE9FF4104460068816800917749784E78
:101070004FF04027884201D1324600E03A4692685C
:10108000019240688846029001D1304600E038461F
:101090004068039060684FF00105B0F5007F1CD0F8
:1010A000D8B1900705D50398000602D5204601F077
:1010B00043FB0098C0070FD0029840067FD52168F7
:1010C0002046CA68E16A8B1CE3620A80618E491E71
:1010D0006186618E002967D071E00098800719D57C
:1010E0000298000616D5616A20468A1C6262226850
:1010F0000988D160618D491E6185618D51B9016892
:101100004A6822F0A0024A60418E19B980F8415025
:1011100000F0A0F80198C00705D00398400602D55A
:10112000204601F0D9FA0198400622D5039880069E
:101130001FD52168414501D1304600E0384640685E
:1011400020F0600101D1304600E03846416020685F
:10115000416821F0A00141602068C1688068019069
:1011600084F84150606C40F002006064204600F05A
:1011700072F80098000767D50298800664D5206849
:10118000416821F0A00141602168414501D130460C
:1011900000E03846406820F0600000D03E467060B5
:1011A00020688068009043E001684A6822F060028D
:1011B0004A60418D19B980F8415000F04BF8009811
:1011C00040061ED5029880061BD52068416821F094
:1011D000600141602168414501D1304600E0384658
:1011E000406820F0A00101D1304600E0384641605F
:1011F00084F84150606C40F002006064204600F0CA
:101200002AF8019800071FD5039880061CD521688D
:10121000414501D1304600E03846406820F0A0004A
:1012200000D03E4670602068416821F06001416056
:1012300084F84150606C40F00400606404B02046C3
:10124000BDE8F04100F007B8BDE8FF81003800407C
:1012500000340040704770472DE9F047040005D086
:1012600094F841004FF0000818B109E00120BDE8F2
:10127000F08784F8408051486063204600F0A6F86B
:10128000022684F841602068C16940F6BF77B943FF
:10129000C1612068066260694FF4007902282FD08E
:1012A000E06870B12025A068202800D86D000120DA
:1012B00000F0A0F9216949451FD1E16819B1A900E1
:1012C00002E01025EFE7E900B0FBF1F000EB800051
:1012D00061694000B0FBF1F0401D0A21B0FBF1F064
:1012E00000F00101401A40080902821EFE2A09D3BB
:1012F000606C40F010006064B8E7B0FBF5F0E5E723
:101300000220002122690843024320680262D4E9D6
:1013100001010843A269E168114308432168CA69D1
:10132000BA43104340F40060C861206A01283AD1F2
:101330002348606323482168234A4FF040238142B9
:1013400001D1114600E01946C96921EA070101D11E
:10135000154600E01D46E9612168814201D1114630
:1013600000E019460E622568854201D1114600E071
:101370001946C9698EB2616849451BD0D1B10021B7
:101380002789B4F80CC047EA0C07B4F818C04CEA37
:10139000010C47EA0C07B9B2314341F400618542C0
:1013A00000D01A46D161C4F84480012084F841007D
:1013B00000205CE74FF48071E2E700009927000805
:1013C000611000080038004000340040F0B587B0DC
:1013D000044614216846FFF750F83248304B226823
:1013E00000253049103802242F4E9A4227D10A682E
:1013F00042F480420A60096801F480410591016865
:1014000041F004010160016801F0040105910168E7
:1014100041F0020101600068052700F0020005901C
:1014200008208DE83100CDE9035769463046FFF7C3
:1014300013FAB8028DE8310069461C482AE01C4BBB
:101440009A422BD10A6842F400420A60096801F40A
:1014500000410591016841F001010160016801F05E
:1014600001010591016841F004010160006806274F
:1014700000F00400059010208DE83100CDE90357FD
:1014800069460C48FFF7E8F94FF4A4508DE83100A5
:1014900069463046CDE90357FFF7DEF907B0F0BDE6
:1014A000003800404038024000080240000402407A
:1014B000003C0040000002407047704702488168CD
:1014C0000278114481607047080000200B4810B575
:1014D000016841F400710160016841F480610160BC
:1014E000016841F480710160032000F071F8002070
:1014F00000F006F800F024F8002010BD003C024087
:1015000070B50D4D04464FF47A712878B1FBF0F0B8
:101510000A490968B1FBF0F000F0A5FD48B9102CAC
:1015200007D200222146501E00F032F800206C60E5
:1015300070BD012070BD00000800002014000020D4
:101540000B4882B0016841F480410160006800F4FA
:10155000804000900648001F016841F08051016002
:10156000006800F080500090072002B000F030B812
:1015700044380240002809DB00F01F02012191409D
:101580004009800000F1E020C0F800117047000021
:10159000F0B40E4B1B680C46C3F30223C3F10705DE
:1015A000042D00D90425191D072901D2002300E0CC
:1015B000DB1E012606FA05F1491E214099409E4096
:1015C000761E16403143F0BC02F0EBBB0CED00E0A0
:1015D000064900F0070208684FF6FF03184040EA8A
:1015E0000220034A10430860704700000CED00E041
:1015F0000000FA0501460020012907D110490968B9
:1016000011F4000103D0012900D10E4870470C48A5
:10161000001F01680068490200F03F0001D50A4937
:1016200000E00A49064AB1FBF0F07C321168C1F3D0
:10163000881141431068C0F30270B1FBF0F07047AD
:10164000083802400080BB0000127A000024F40039
:101650002DE9F843044600684FF00109C1074FF037
:10166000000601D1400727D5DFF81C81C8F8686063
:10167000FFF7E8F90746454D05E000BFFFF7E2F93F
:10168000C01B022857D828680001F7D46068810180
:10169000207A41EA00703D4984310860C8F86890BA
:1016A000FFF7D0F9074604E0FFF7CCF9C01B02288A
:1016B00041D828680001F7D52078800752D53348F3
:1016C0004030016841F0805101600068304D00F009
:1016D00080500090286840F480702860FFF7B2F9CD
:1016E000074604E0FFF7AEF9C01B022823D828689C
:1016F000C005F7D5254D7035286810F4407020D00E
:10170000A18901F4407181421BD0286820F4407106
:101710002048C0F80090066029602868C00710D0F3
:10172000FFF790F9064641F2883707E0FFF78AF99C
:10173000801BB84202D90320BDE8F88328688007DF
:10174000F4D5E1681148C1F301220830032A12D010
:10175000016821F4F81101602868A189C1F30B0127
:10176000084328602078000703D50B49207CC1F886
:10177000E0010020E0E70268084B22F4F81219406B
:101780000A430260E8E700000000474200380240D8
:1017900000700040400E474200104742FFFCFF0F20
:1017A0002DE9F0470E46050065D0DFF81481D8F822
:1017B0000000F7B200F00700B04207D288F80070CE
:1017C000D8F8000000F00700B04254D128683D4C22
:1017D000810712D5400703D5206840F4E05020600F
:1017E0002878000703D5206840F460402060206816
:1017F000A96820F0F000084320602878C0072DD0A9
:10180000304968680839012812D0022813D003280B
:1018100011D00968890700292DDA216821F0030118
:1018200001432160FFF70EF9814641F2883A0EE04C
:1018300009688903EFE709688901ECE7FFF702F916
:10184000A0EB0901514502D90320BDE8F0872068CB
:10185000696800F00C00B0EB810FEFD1D8F80010F0
:10186000404601F00701B14207D90770006800F057
:101870000700B04201D00120E7E72878400705D5EE
:101880002068E96820F4E0500843206028780007C9
:1018900006D52068296920F4604040EAC100206034
:1018A00000F028F82168084AC1F30311515CC840D0
:1018B0000649086006480068FFF722FE0020C4E7DA
:1018C000003C024008380240A63E000814000020F8
:1018D0000C0000200448054900680968044AC1F367
:1018E0008221515CC8407047140000200838024033
:1018F000B63E0008154810B5006810F00C021448F8
:1019000013D04110042A0FD0082A0ED10F4C241FE7
:101910002268236802F03F025B0207D52068C0F30B
:101920008810A0FB010106E0084610BD2168C1F344
:101930008811A1FB00010023FEF7F6FC2168C1F32A
:101940000141491C4900B0FBF1F010BD08380240CC
:101950000024F4002DE9F84F04006ED02078DFF861
:101960004C93C007A9F104054AD009F104000168AD
:10197000C1F38101012908D00068C0F38100022869
:101980000AD1D9F80000400206D52868800337D56F
:1019900060680028E1D033E06068B0F5803F10D087
:1019A000B0F5A02F286810D020F480302860286877
:1019B00020F4802028606068A8B1FFF743F806464D
:1019C0000DE0286840F48030F4E740F4802028607F
:1019D000F7E700BFFFF736F8801B642873D8286844
:1019E0008003F7D50CE0FFF72DF8064605E000BFB1
:1019F000FFF728F8801B6428F0D828688003F7D404
:101A00002078DFF8AC8280074FF0000A3ED5A74867
:101A1000001D016811F00C0F08D00068C0F38100B0
:101A200002280BD1D9F80000400207D428688007AB
:101A300016D5E068012800D112E033E1E068B8B1C2
:101A40000120C8F80000FEF7FDFF064605E000BFD4
:101A5000FEF7F8FF801B0228C0D828688007F7D55A
:101A60002868216920F0F80040EAC10028600DE0F4
:101A7000C8F800A0FEF7E6FF064604E0FEF7E2FF26
:101A8000801B02281FD828688007F7D42078000719
:101A900022D5864F87486169703771B10121016095
:101AA000FEF7D0FF064604E0FEF7CCFF801B0228BD
:101AB00009D838688007F7D50EE0C0F800A0FEF717
:101AC000C1FF064605E082E0FEF7BCFF801B02284E
:101AD0007DD838688007F7D42078400768D5DFF8CC
:101AE000CCB100270BF13C0BDBF80000C0000BD49D
:101AF000DBF8001041F08051CBF80010DBF800005B
:101B0000012700F0805000906B4E3068C00510D463
:101B1000306840F480703060FEF794FF009005E07C
:101B2000FEF790FF0099401A022850D83068C0058F
:101B3000F6D55E4EA0686C3601280FD005283068B7
:101B400010D020F001003060306820F004003060D8
:101B5000A068B8B1FEF776FF00900FE0306840F063
:101B60000100F4E740F004003060F7E7FEF76AFF99
:101B70000099411A41F28830814266D83068800766
:101B8000F4D50EE0FEF75EFF009007E0FEF75AFF87
:101B90000099411A41F28830814256D83068800756
:101BA000F4D42FB1DBF8001021F08051CBF80010F5
:101BB000A069C8B33D49091D0968C1F38101022923
:101BC0004AD00228504607D0C8F8600000E03CE048
:101BD000FEF738FF04463BE04746C8F86000FEF7D2
:101BE00031FF064605E000BFFEF72CFF801B0228F0
:101BF0002BD828688001F7D4D4E907010843A16AEB
:101C00002E4A490802EB0141626A41EA8211084307
:101C100094F82C1040EA0161C9F8001001203866E0
:101C2000FEF710FF044606E03EE000BFFEF70AFFA5
:101C3000001B022809D828688001F7D534E000BFCE
:101C4000FEF700FF001B022802D90320BDE8F88F31
:101C500028688001F4D427E00128F7D0D9F80000E3
:101C6000E26900F4800191421CD1226A00F03F0138
:101C7000914217D147F6C071626A0140B1EB821FF1
:101C800010D1A26A4FF0FF3300F4403103EB52024F
:101C9000B1EB024F06D194F82C1000F07060B0EB5D
:101CA000016F01D00120D1E70020CFE704380240C6
:101CB00000004742800E4742007000400000FFFFD6
:101CC0007047000038B5016804464A688868C04318
:101CD000430606D5C30704D1D3435B0601D4216C68
:101CE00005E0830708D4D3431B0605D4616C01B01B
:101CF0002046BDE830400847830603D5430601D59A
:101D0000C30551D4D3439B064ED443060AD494F85A
:101D10005130032B49D0636D43F004036365CB68F6
:101D20008B680093830609D4636D43F001036365F8
:101D30008B6800930B6823F040030B60C00506D44A
:101D4000606D40F008006065206880680090606DFC
:101D5000002829D02068416821F0E001416001207D
:101D600084F85100900701D4D00722D02068416840
:101D700021F003014160114DE06C40B10565E06C5C
:101D8000FEF746FD18B1606D40F040006065A06C44
:101D9000002809D00565A06CFEF73AFD002803D0A5
:101DA000606D40F04000606538BDC868886800908C
:101DB00038BD2046FFF784FF38BD0000312C0008F5
:101DC00070B5040009D0606A002540B125616561E5
:101DD000A56294F8510040B10CE0012070BD60682C
:101DE000B0F5827FF4D0E561F2E784F850502046E8
:101DF00000F044F8022084F851002068016821F0C6
:101E000040010160A088218900F4827001F404413E
:101E10000843A18901F400610843217C01F002011B
:101E20000843217D01F001010843218B01F4007179
:101E30000843217F01F03801084394F8201001F095
:101E400080010843218D01F4005108432168086096
:101E5000A069042101EA104094F8241001F0100157
:101E60000843216848602068C16921F40061C161AC
:101E70006565012084F85100002070BD10B586B062
:101E8000044614216846FEF7F8FA1749206888428C
:101E900028D116480021026842F48052026000688E
:101EA00000F48050059011481438026842F0010295
:101EB0000260006800F001000590E0200090022020
:101EC000CDE90101032003900520049069460848EC
:101ED000FEF7C2FC002211462320FFF759FB232006
:101EE000FFF748FB06B010BD003001404438024007
:101EF00000000240F0B400248568134604261DB992
:101F00004268B2F5827F0DD090F85020012A0FD0A0
:101F1000012280F8502090F851700022012F0AD041
:101F2000022436E080F85160F0BC0A4600F048B860
:101F30000220F0BC704771B16BB180F8516042650E
:101F400081638387C38702638286C2864264C168D5
:101F500019B1124902E001241BE011490164B5F5F1
:101F6000004F09D101680B6823F040030B60016842
:101F70000B6823F480430B6001684B6843F06003F7
:101F80004B6001680B685B0603D40B6843F04003A9
:101F90000B6080F850202046CBE70000F52C0008AD
:101FA000152D000810B5012211030348FEF744FD6A
:101FB00002490020087010BD000C02400000002003
:101FC000F0B590F850500024012D0CD0012580F878
:101FD000505090F8515000264768012D0BD0B7F5AE
:101FE000827F06D101E00220F0BD87680FB9042D81
:101FF00001D0022429E0A9B1A2B19BB190F85150BF
:10200000042D02D0052580F8515046650163838672
:10201000C38682638387C387C16829B10D49016480
:102020000D4904E0012410E00C4901640C494164AD
:1020300001684A6842F0E0024A6001680A68520694
:1020400003D40A6842F040020A6080F850602046DB
:10205000F0BD0000952A0008F52A0008C52A0008EE
:10206000252B0008704710B5401EB0F1807F01D3CA
:10207000012010BD4FF0E02460610F21601701F0D6
:1020800090FE0020A06107202061002010BD2DE9F6
:10209000F047074600680E4600EB4114D4F80805E7
:1020A0004FF00409420701EB410000EBC6004FF07E
:1020B000050A4FF0100807EB800508D5C4F808950D
:1020C000D4F80C0540F00200C4F80C0553E0D4F835
:1020D0000805C0050DD54FF48070C4F80805072029
:1020E00085F86100D4F80C0540F00200C4F80C0536
:1020F00029E0D4F80805800601D5202039E0D4F87D
:10210000080501074FF008000AD5D4F80C1541F076
:102110000201C4F80C1585F861A0C4F808850FE029
:10212000D4F80815490512D5D4F80C1541F0020170
:10213000C4F80C1585F86100C4F808854FF4806078
:10214000C4F808053146386801F07BFB13E0D4F889
:10215000080500060FD5D4F80C0540F00200C4F8BD
:102160000C05062085F861003146386801F069FBEE
:102170008020C4F80805D4F80805800510D5D4F8E7
:102180000C0540F00200C4F80C05314604F5A164CA
:10219000386801F056FB4FF400702060BDE8F0870E
:1021A000D4F808054FF00001C0074FF001024BD0F2
:1021B000386930B1A86CD4F81035C3F31203C01AD3
:1021C000286585F86120E965C4F8082595F83F0081
:1021D00030B1022804D0032811D0012818D023E000
:1021E000D4F80C0540F00200C4F80C05314604F5A3
:1021F000A164386801F025FBC4F8008014E0D4F82D
:10220000000540F00050C4F8000585F8602007E0A4
:1022100085F8602095F8540080F0010085F854009E
:1022200031463846FEF77DFC3869012806D1B5F8FD
:102230004010A86CB0FBF1F0C007AFD015F8540FF8
:1022400080F001002870A9E7D4F8080580073BD585
:10225000D4F80C0520F00200C4F80C0595F86100D4
:10226000022301280AD005280BD006280CD0082804
:102270000AD003280FD0072818D01CE085F860206A
:1022800019E085F860A016E0E86D401CE8650228BA
:1022900001D9E9650DE085F86030D4F8000520F03B
:1022A000804040F00040C4F8000504E0E86D401CA8
:1022B000E86585F86090C4F8083595F860203146E7
:1022C0003846FEF72EFC69E7D4F80805C006BAD5F3
:1022D00095F83F00032803D020B1022802D011E076
:1022E000E96505E0E965386960B9032085F86100B2
:1022F000D4F80C0540F00200C4F80C0531463868EB
:1023000001F09FFAC4F8088548E72DE9F047026814
:1023100002EB4114D4F8082553074FF0040209D505
:10232000C4F80825D4F80C0540F00200C4F80C05E8
:10233000BDE8F087D4F8083501EB41079E0607EBAE
:10234000C1054FF0000300EB85054FF0020C15D5D9
:102350002022C4F8082595F83D20012AE8D185F807
:102360003D3085F860C0D4F80C2542F00202C4F874
:102370000C250068BDE8F04701F063BAD4F80865A1
:10238000B6050DD5D4F80C2542F00202C4F80C2590
:10239000006804F5A16401F054FA4FF400706DE098
:1023A000D4F808654FF040075FEAC6784FF00106A1
:1023B00017D0EB65D4F80825520603D585F83D60A3
:1023C000C4F80875D4F80C2542F00202C4F80C25B4
:1023D000006804F5A16401F034FA266085F86160B4
:1023E000A6E7D4F808855FEA486811D585F861202A
:1023F00085F83D60EB65D4F80C2542F00202C4F884
:102400000C25006804F5A16401F01BFA27608FE732
:10241000D4F808754FF005095FEA07784FF0080710
:102420000DD5C4F80875D4F80C2542F00202C4F8A2
:102430000C25006801F005FA85F8619078E7D4F87A
:1024400008854FF0100A5FEAC86819D50322EB65CA
:1024500085F8612095F83D2022B995F83C200AB90D
:1024600085F83D60D4F80C2542F00202C4F80C2532
:10247000006804F5A16401F0E4F95046206057E7D4
:10248000D4F808855FEA08681FD5066956B1EE6D75
:10249000761CEE65022E12D9EB6585F86020FEF7FA
:1024A00040FB0EE0062285F86120D4F80C2542F0AE
:1024B0000202C4F80C25006801F0C3F901E085F8B8
:1024C00060C08020C4F8080532E7D4F808855FEAC8
:1024D000485812D5D4F80C2542F00202C4F80C2555
:1024E000006804F5A16401F0ACF9C4F800A04FF451
:1024F0008060206085F861701AE7D4F80875BF071E
:1025000085D5D4F80C7527F00207C4F80C7595F83A
:102510006170012F0AD0032F2CD0042F2AD0052F51
:102520002BD0062F2CD0082F2AD03CE085F86060F5
:1025300095F83F20022A01D0032A34D102692AB932
:1025400095F8552082F0010285F855200269012A8C
:1025500029D1EA6C3AB3B5F840301A44521EB2FBA6
:10256000F3F2D2071FD095F8552082F0010285F8CA
:10257000552018E085F860C015E085F8609012E0FD
:10258000EE6D761CEE65022E03D9EB6585F86020B2
:1025900009E085F860C0D4F8002522F0804242F0BE
:1025A0000042C4F80025C4F808C595F86020FEF77D
:1025B000B8FABDE67CB504680546D4F8400401903D
:1025C000D4F8400420F02E0000900198800709D52F
:1025D0000198C00702D02846FEF73AFA009840F06A
:1025E000020000900198000724D5009840F00800F0
:1025F0000090019840071AD5A869022803D0E8681E
:1026000001280CD00FE00198C0F34140022828684F
:1026100003D0012101F004FB05E00221FAE74EF6A8
:102620006020C4F804042846FEF7F0FB02E02846C8
:10263000FEF7E8FB01988006009802D540F02000E4
:102640000090C4F840047CBD2DE9F04102460068CA
:102650000646016AC1F3434301F00F07C1F30A15AF
:10266000022B31D1002D2FD007EB470101EBC70121
:1026700002EB8104616C002926D0226DE36C2A44B0
:102680009A4223D82A4601F0EAFA606C2844606432
:10269000206D2844206506EB4710D0F81015B4F8DB
:1026A0004020C1F3C941AA420ED100290CD0D0F874
:1026B000001521F0804141F00041C0F8001514F8E8
:1026C000540F80F001002070BDE8F081042084F8F0
:1026D0006000F9E7FEE7000070B515490268154B88
:1026E0004FF040248A4201D11A4600E02246D568C4
:1026F000C26A961CC6621580428E521E4286428E67
:10270000002A14D102688A4201D1194600E021460C
:10271000496821F0600100D023465960418D0029AD
:1027200005D14FF0010180F84110FEF793FD70BD17
:10273000003800400034004070B5416A144B8A1CD8
:10274000426205680988134A4FF040249D4201D136
:10275000154600E02546E960418D491E4185418DC1
:10276000002914D10168994201D1114600E02146A7
:10277000496821F0A00100D022465160418E002915
:1027800005D14FF0010180F84110FEF763FD70BDE7
:1027900000380040003400407CB501680446886879
:1027A000009094F841000125042834D10098C00716
:1027B00018D04868C043400614D4C9682046E26A6D
:1027C0001180E16A891CE162618E491E6186618E19
:1027D00041B901684A6822F060024A6080F84150BD
:1027E000FEF76AFE0098400615D520684168C94387
:1027F000890610D4416821F0600141602068C168F9
:102800008068019084F84150606C40F00200606480
:102810002046FEF720FD94F84100032834D10098AB
:10282000800719D521684868C043000614D4626A3D
:1028300020461288CA60616A891C6162618D491EE6
:102840006185618D41B901684A6822F0A0024A6041
:1028500080F84150FEF731FE0098000714D520683B
:102860004168C94389060FD4416821F0A001416045
:1028700020688068009084F84150606C40F004004B
:1028800060642046FEF7E7FC7CBD000020B100221A
:1028900001210248FEF7D0B80122F9E70008024002
:1028A0002DE9F04786B014216846FDF7E6FD434860
:1028B0000024016841F010010160016801F010017D
:1028C0000591016841F004010160016801F0040113
:1028D0000591016841F080010160016801F080010B
:1028E0000591016841F001010160016801F00101F9
:1028F0000591016841F002010160016801F00201E7
:102900000591016841F0080101600068DFF8B080BE
:1029100000F008000590002208214046FEF78CF8E0
:10292000DFF8A090012211464846FEF785F8DFF84F
:1029300098A04FF21007002239465046FEF77CF867
:102940000420CDE90004694640460294FDF784FF67
:10295000082000900125CDE90154694640460394C2
:10296000FDF77AFF32204FF49016CDE90006694654
:1029700002944046FDF770FF0095CDE90154694689
:1029800048460394FDF768FF0095CDE90164694668
:102990000E48FDF761FF0097CDE9015469465046A6
:1029A0000394FDF759FF2020CDE900046946504605
:1029B0000294FDF751FF06B0BDE8F08730380240C1
:1029C0000010024000080240000C024000000240DB
:1029D0000D4810B50B49016000214FF48062C0E939
:1029E0000112C16052100161C0E905120162416229
:1029F00081620A21C162FFF7E3F9002801D072B6B3
:102A0000FEE710BD003001401C01002010B501227E
:102A10000B490C4800F02DFD08B1FDF7ECFE0A490A
:102A2000084800F013FE08B1FDF7E5FE054800F088
:102A300026FE002803D0BDE81040FDF7DCBE10BD27
:102A4000953600087401002018000020FEE7FEE71C
:102A50000148FEF7B4B800004C050020704700B5EF
:102A600085B014216846FDF708FD01200090C020C4
:102A70000190022002906846FEF7EAFD002801D08E
:102A800072B6FEE705B000BD0148FFF71BB90000B4
:102A90001C0100200168C968826B1180816B891C50
:102AA0008163C18F491EC187C18F002909D1016887
:102AB0004A6822F040024A60C18E002901D100F02C
:102AC00049B870470168097B826B1170816B491CA2
:102AD0008163C18F491EC187C18F002909D1016857
:102AE0004A6822F060024A60C18E002901D100F0DC
:102AF00031B87047016B02680988D160016B891C8D
:102B00000163C18E491EC186C18E002909D10168A9
:102B10004A6822F080024A60C18F002901D100F08A
:102B200019B87047016B026809781173016B491C71
:102B30000163C18E491EC186C18E002909D1016879
:102B40004A6822F080024A60C18F002901D100F05A
:102B500001B8704738B50446214845F6C0510068B1
:102B6000B0FBF1F0642148430090FDF76BFF024693
:102B70002068416821F020014160009888B1401E22
:102B80000090206880688007F7D56421204600F017
:102B900085F818B1606D40F020006065A06828B12C
:102BA00008E0606D40F020006065EEE72068C168D5
:102BB00080680090616D012029B184F851002046A1
:102BC000FFF77EF838BD94F8511084F851000429BD
:102BD000204602D0FFF746FA38BDFFF7E3F938BDCB
:102BE0001400002038B504460068416821F06001F7
:102BF0004160FDF727FF02466421204600F020F8DF
:102C000018B1606D40F020006065A06818B92068B8
:102C1000C16880680090012084F85100606D002830
:102C2000204602D0FFF74CF838BDFFF7BBF938BD9E
:102C300010B5806B0021C187C186FFF741F810BD38
:102C4000F8B5044640684FF48273984221D1A068D9
:102C50004FF48065B0F5004F01D0A8420AD120683A
:102C6000066826F0400606606068984211D1A068A8
:102C7000A8420ED000920B4600228021204600F090
:102C800059F8002804D0606D40F0200060650320F2
:102C9000F8BD00920B4600220121EFE738B504464B
:102CA0001248134B0068B0FBF3F04FF47A735843AB
:102CB00000906068B0F5827F0DD10B460092002233
:102CC0008021204600F036F870B1606D40F02000A1
:102CD0006065032038BD009830B1401E0090206828
:102CE0008068C0430006F6D5002038BD14000020DF
:102CF00000366E010168C968826B1180816B891C86
:102D00008163C18F491EC187C18F002901D1FFF79F
:102D100069BF70470168097B826B1170816B491C28
:102D20008163C18F491EC187C18F002901D1FFF77F
:102D300059BF70472DE9F8431E4691468846044620
:102D4000089DFDF77FFE401B351AFDF77BFE074609
:102D500025480068C0F3CB30684338E0701C37D09A
:102D6000FDF770FEC01BA84203D215B1009860B3F6
:102D70002CE02068416821F0E00141606068B0F516
:102D8000827F0BD1A068B0F5004F02D0B0F5806F04
:102D900004D12068016821F040010160A06AB0F50B
:102DA000005F09D12068016821F4005101602068AA
:102DB000016841F400510160012084F851000020B5
:102DC00084F850000320BDE8F8830025401E0090E1
:102DD0002068816838EA010004D000214945BDD14E
:102DE0000020F0E70121F9E7140000207047FEF70A
:102DF00065BB000030B593B030216846FDF73DFB60
:102E000014210CA8FDF739FB1E480024016841F08D
:102E100080510160006800F0805011901A480168EC
:102E200021F4404141F4004101600068022500F4B2
:102E30004040119001200090000401908001CDE9F4
:102E40000650082008904FF4A870099004200A90BA
:102E500007200B906846FEF77DFD08B172B6FEE7CD
:102E60000F20CDE90C054FF48050CDE90E40022132
:102E70000CA81094FEF794FC002801D072B6FEE76F
:102E800013B030BD40380240007000400248016875
:102E900041F470010160704788ED00E010B5002238
:102EA0004FF6FF7300EB8204B4F8844324040BD480
:102EB0009A4207D002F00F0300EB830041F4004177
:102EC000C0F88413D0B210BD521CD2B20B2AE9D381
:102ED0001A46F7E77FB51C46012501AE0023009591
:102EE00086E80E0002232A46214600F094FB04B037
:102EF000002070BD7FB51D4690F81D33089C03B1BE
:102F000000240123CDE90031CDE90224022300226F
:102F1000294600F080FB04B0002070BD70B5044667
:102F2000D0F87C03C16920464031FDF766FC0500FE
:102F300004D1D4F8D423022120469047284670BDFE
:102F400070B50546D0F87C030026C469217839B1F4
:102F5000284600F027F92178284600F0A9F92670C4
:102F6000217B39B1284600F01DF9217B284600F06D
:102F70009FF92673617B39B1284600F013F9617B14
:102F8000284600F095F96673D5F87C03C06920B136
:102F9000FDF7A3F9D5F87C03C661002070BDFEB52E
:102FA000022205460123114600F060F90646FF287B
:102FB00041D0022E3FD20146284600F055FBD0BB3F
:102FC0005020FDF75BF9D5F87C130446C86120005A
:102FD00031D05021FDF751FA06EB860000EBC60018
:102FE00005EB400191F84E03020603D56070B1F87D
:102FF0005003608161782846FFF750FF207001463A
:1030000095F81D03638903228DE80D0095F81C33A4
:103010006278284600F010FB21780022284600F054
:10302000D6FA00231A460A21284600F01FF9FF2885
:1030300001D0022801D30220FEBD00EB800101EB8C
:10304000C00005EB400090F84E130A0604D5E1736A
:10305000B0F85013618303E0A173B0F850132183DB
:1030600090F856130A0604D5E173B0F8580360834C
:1030700003E0A173B0F858032083A17B2846FFF733
:103080000DFF6073E17B2846FFF708FF2073208B5C
:1030900095F81D1302260091CDE9016095F81C33C7
:1030A000A27B617B284600F0C7FA608B95F81D1360
:1030B0000091CDE9016095F81C33E27B217B284625
:1030C00000F0BAFA002084F84C000246617B2846E2
:1030D00000F07DFA217B0022284600F078FA0020DB
:1030E000FEBD70472DE9F0410546D0F87C0301276D
:1030F0000026C4694FF0040894F84C0005284AD211
:10310000DFE800F00305163B4200002743E02122E0
:10311000A16C2A7420226A746E82AE82072228462D
:10312000EA8200F062F848B9022084F84C0032E0EC
:1031300004F140012846FDF760FB20B101282AD0A8
:1031400084F84C8027E084F84C60A06C94F844101C
:10315000027991421FD194F84610827991421AD196
:1031600094F845104279914215D1216C0068814252
:1031700011D12846FFF7B5FF0DE02846FDF7D8FA34
:103180002846FDF7A1FA06E00021284600F00FF8D6
:1031900008B984F84C603846BDE8F08170470020DB
:1031A0007047704710B500F083F9002010BD827899
:1031B000012A07D1022202740122427400224282B3
:1031C0008182C2820022114600F00FB87FB51C46F2
:1031D000012501AE0023009586E80E002A4621460F
:1031E00000F019FA04B0002070BD70B5044601204B
:1031F000A3780546012B0BD0022B08D1204600F006
:103200006FF858B1032809D0022800D1A57070BD0D
:10321000A160A28125760221A17070BDA570002158
:10322000217670BD7FB51D4690F81D33089C03B113
:1032300000240123CDE90031CDE9022400231A4600
:10324000294600F0E8F904B0002070BD1FB5002346
:103250001446CDE900310822CDE902231A46214661
:1032600000F0D9F904B0002010BD000070B505468B
:10327000002005F54E7500BF00EB800404EBC00490
:1032800005EB4404E67B0A348E4201D0FF2909D1C4
:10329000A679964201D0FF2A04D1E4799C4206D057
:1032A000FF2B04D0401CC0B20228E5D3FF2070BD24
:1032B0000B2907D200EB8100B0F88413C1F30E0193
:1032C000C0F884130020704701004FF0000004D0C4
:1032D000012901D0022901D0022070470120704746
:1032E0002DE9F84F0125017E04460B2609272846C3
:1032F0004FF007084FF0050A4FF00D090C2919D2BD
:10330000DFE801F0B4060E26313C48606B7C899AF8
:10331000627904F110012046FFF798FF022012E0C5
:103320006179204600F0FFF8012804D0042871D00C
:1033300002287FD09AE0207CE18A00F0800021B151
:1033400080283AD10320207690E0802814D02EE007
:10335000D4F8C403E0812379A2892046A168FFF74D
:1033600035FF0420EFE72179204600F0DCF8012842
:1033700002D0052840D056E0277677E000906379A8
:10338000A2892046A168FFF74DFFD4F8C403E0816D
:103390000620D8E76179204600F0C5F8012806D05C
:1033A000052807D0022808D0042809D05EE084F858
:1033B00018805BE00C2020761EE084F818A055E011
:1033C000267652E00022237911462046FFF7FEFEC2
:1033D000D4F8C403E0810820B5E72179204600F045
:1033E000A2F8012804D0042824D0052804D03DE008
:1033F00084F81890002539E0032537E0009000227A
:10340000637911462046FFF70DFFD4F8C403E0812D
:103410000A2098E70EE06179204600F084F8012840
:1034200004D00228A8D0042804D01FE0002584F886
:1034300018901BE0267619E0617E491CC9B26176BE
:10344000022902D82076A07010E0D4F8D4230621F7
:10345000204690470025657661792046FFF728FFD2
:1034600021792046FFF724FF257002252846BDE874
:10347000F88F70B50E46040018D084F8CC230025D0
:10348000C4F87C53C4F8805304F54874FDF78AF9F6
:10349000E57025706570A570A4F548740EB1C4F888
:1034A000D463204600F052F8002070BD022070BDA9
:1034B00010B5D0F8D003FDF7E7FABDE81040FFF7EC
:1034C00003BF012180F82013002180F8211380F828
:1034D00022130846704710B50446012084F82103E2
:1034E000002084F8200384F82303204600F08AF8A3
:1034F00021792046FFF7DCFE61792046FFF7D8FEF0
:10350000002010BD10B590F8CC03012802D1084668
:10351000FFF7BCF9C820FDF78DF9002010BDD0F8E9
:10352000D003FDF7A9BAD0F8D003FDF79CBAD0F8C4
:10353000C413491CC0F8C41301780B2905D1D0F875
:103540007C13002901D089690847704710B50446EB
:1035500090F8CC0301281CD10F484FF0A041002265
:10356000C0F80043C4F8D003016008218160012144
:10357000C0E903120221C0E90612FDF7BDFB08B144
:10358000FDF739F90448FDF76BFA0146204600F0D3
:103590001BF8002010BD00004C050020FEB508AF50
:1035A00097E870008DE87000D0F8D003FDF77EFA40
:1035B000BDE8FE40FFF788BE002180F82313704766
:1035C000012180F823137047C0F8C4137047D0F866
:1035D000D00301EB410303EBC10100EB810090F844
:1035E0003B1011B180F8542001E080F855200020F4
:1035F000704710B5D0F8D003FDF710FCBDE81040BF
:10360000FFF762BE10B5D0F8D003FDF71DFCBDE892
:103610001040FFF759BE2DE9FF410DF1280898E849
:10362000F0008DE8F000D0F8D003FDF77BFA04B08D
:10363000BDE8F041FFF748BEFEB508AF97E870005F
:103640008DE87000FFF7AAFF0020FEBD002211B137
:10365000D0F8803313B10222104670470123C0F81E
:103660008033C0F87813F7E70246002092F83C3325
:103670008B4202D982F8241370470220704710B59C
:103680000446FFF7B6FF01212046FFF73BFF00206D
:1036900010BD000001290AD00548022906D00429DE
:1036A00003D0052903D1032100E0012101707047F7
:1036B0000600002070B5044606990A9E049D0D98E8
:1036C000012916D0E06840F04000E060204600F09C
:1036D0002BF8A16B1EB321F48031A163012D07D11A
:1036E000A16841F00601A160A16841F02001A1603C
:1036F00070BDA16B21F48031A163E168094A1140DA
:10370000E160E16821F44011E160012803D1E06843
:1037100040F48010E060204600F006F8DEE741F457
:103720008031DAE7BFFFBDFF08B500220D490092E6
:10373000009B5B1C00938B420CD80369002BF7DACB
:103740000092026942F001020261009A521C00924A
:103750008A4201D9032008BD0269D207F5D10020B1
:1037600008BD0000400D0300816821F00101816067
:103770000020704700EB4110064AC0F81025D0F831
:10378000001521F0804141F00041C0F800150020F3
:10379000704700000000088008B5D0F8402422F0EF
:1037A0002E020092D20405D4012909D1009941F4D6
:1037B000805103E021B9009921F48051C0F84014F0
:1037C000002008BD816841F0010181600020704740
:1037D00008B500210091102101610649009A521C90
:1037E00000928A4201D9032008BD0269D206F5D4AD
:1037F000002008BD400D030008B5002200922022E1
:1038000042EA811101610649009A521C00928A42E3
:1038100001D9032008BD02699206F5D4002008BD35
:10382000400D0300D0F8080480B2704708B5D0F806
:1038300040040090C0F3414008BD406900F0010021
:10384000704710B500EB4111D1F80025D1F80035D3
:10385000C2F381428468DB0FA40600D51BB34FF48A
:103860007A736AB1022A0BD0D1F8002542F0804267
:10387000C1F80025D0F8100410F47F0F31D00CE00F
:10388000D1F8002542F08042C1F8002582689206F6
:1038900009D4C06A10F47F0F07D0D1F8000540F0BA
:1038A0000040C1F80005002010BDD1F8000520F04F
:1038B0000040C1F80005D1F8000540F00040C1F813
:1038C0000005D1F8000520F40040C1F800050120F2
:1038D00002E0401C9842E6D8D1F80025002AF8DB27
:1038E000E1E7D1F8000520F00040C1F80005D1F86B
:1038F000000540F00040C1F80005D1F8000520F4B3
:103900000040C1F80005012002E0401C9842CAD8DE
:10391000D1F80025002AF8DBC5E700002DE9F043C7
:103920001E46DDE90785002700EB41147B1EDDF80C
:103930002490C4F80835D5B1012D33D0022D16D00E
:10394000032D28D05FF00107D0F8183401F00F0CD8
:10395000012101FA0CF10B43C0F81834816941F0E0
:103960000071816111062AD54FF4004128E040F230
:103970009D43C4F80C35130605D500BFD4F80C35AB
:1039800043F4807318E0C36BDB05DDD5D4F80C3548
:1039900043F0600310E040F29D63C4F80C35130659
:1039A000ECD4D1E740F22523C4F80C351306CBD56F
:1039B000D4F80C3543F4C073C4F80C35C4E70021C7
:1039C000FFF734FFB8F1020F04D1022802D04FF400
:1039D000003000E000204FF0FE5303EA86534FF41E
:1039E000F04606EAC22213434FF4402202EA85421F
:1039F0001343C9F30A0213430B430343C4F80035CE
:103A0000032D05D1D4F8000540F00050C4F800059E
:103A10003846BDE8F083D0F8140480B27047F8B59A
:103A20004C78C56B4FF48073ED0515D50D799DB9B4
:103A3000012A01D06AB10FE0CD790DB1022D0BD171
:103A400000EB4415D5F80C6526F07006C5F80C653A
:103A500002E04D79012D0DD04E697EB10D897719A7
:103A60007F1EB7FBF5F7BFB29F4208D91F462B0256
:103A70000B6104E02146FFF77DFE6EE00127CB7865
:103A80001BB10B897B430B6101E033460E61C3F32D
:103A900012056FF0604303EAC7431D438B7A4FF072
:103AA000C04606EA43731D4300EB4413C3F81055A8
:103AB00012B1CC68C3F81445D0F80844D3F80055C7
:103AC00044F3000425F00055C3F80055D3F8005521
:103AD000641C45EA4474C3F80045D3F8004524F05B
:103AE00080440094CC78002C009C02D044F4004424
:103AF00001E024F4004444F000440094C3F800457D
:103B00005ABBCA784ABB4A693AB3CB7933B1012B65
:103B10000FD0022B02D0032B17D10AE0D21CC36AAC
:103B2000C2F38F029BB293420FD2826942F020020D
:103B30000AE0D21CD0F81034C2F38F029BB2934239
:103B400003D2826942F080628261002200928A8AF6
:103B500093B24A78C96800F00FF90020F8BD000060
:103B6000F0B50025059F16460446C0F8005E806B40
:103B700040F40010A063A06B20F40020A063A06BB1
:103B800020F48020A063E06BC00501D5012B04D098
:103B9000D4F8000420F0040103E0D4F8000440F05D
:103BA00004012046C4F800141021FFF725FE20462A
:103BB000FFF70EFE0020411E07E000BF04EB40129D
:103BC000C2F80815C2F80C55401C8642F6D8A5610B
:103BD0006161E06BC00506D54FF4007060620B4870
:103BE000A0620B4804E0802060620A48A0620A4894
:103BF000C4F800011FB9A06940F01000A061A069DD
:103C000006490843A0610020F0BD00000002000149
:103C10000003E00080006000E0004000080020A3F6
:103C2000D0F8002422F00302C0F80024D0F80024C9
:103C300001F003031A43C0F80024012902D002292D
:103C400003D006E04BF6803101E041F27071C0F81C
:103C5000041400207047416980690840704730B5FE
:103C600003460846940802F00301002203F580533E
:103C700003E01D6840F8045B521CA242F9D30029FE
:103C80000BD01C680022D50024FA05F3491E521CF3
:103C9000090400F8013B090CF5D130BD70B50446AC
:103CA000C068002520F0C040E060012901D079B152
:103CB00020E0E06840F00050E0600120FCF7BAFD31
:103CC00060696D1C10F0010F10D1322DF5D30DE09D
:103CD000E06840F08040E0600120FCF7ABFD6069E7
:103CE0006D1C10F0010F01D0322DF5D3322D01D013
:103CF000002070BD012070BD30B5044680680025ED
:103D000020F00100A06010212046FFF775FD20463D
:103D1000FFF75EFD5FF0000004EB4011D1F80025D5
:103D200022F0802242F08042C1F80025401C0F287A
:103D3000F2D900204FF47A7304EB4011D1F800253A
:103D400022F4004242F04042C1F800256D1C9D4221
:103D500003D8D1F80025002AF8DB401C0F28EBD946
:103D60004FF0FF30C4F814046061A06840F0010017
:103D7000A060002030BD000010B5029C74B9DB1CAF
:103D80009C0800EB0230002300F5805004E000BFE7
:103D900051F8042B02605B1CA342F9D3002010BD34
:103DA000FEE70907090E002804DB00F1E02080F897
:103DB0000014704700F00F0000F1E02080F8141D9F
:103DC00070470000FDF782FBFFF714F8FEF747FE8F
:103DD000FEF766FD2A482949002401602949C0E907
:103DE00001144FF48041C0E9034144618461C4611E
:103DF0000462FDF73BF808B172B6FEE7204822499D
:103E000054304D150160C0E901544FF4FA51C460BB
:103E1000C0E904418461C4610462FDF71DFA08B180
:103E200072B6FEE7164819499C300160C0E901549A
:103E30001749C0E90345C0E90514C4610462FDF7F0
:103E40000BFA08B172B6FEE7FEF7C2FDFEF7DEFD23
:103E5000104C0125104F2E0320780028FCD10D496D
:103E600007480522491CE430FEF744F8257000227B
:103E700031463846FCF7E0FDEEE700000054004014
:103E800038000020A086010000380040003C0040BF
:103E90000077010000000020000C02404FF040704D
:103EA000E1EE100A7047000000000000000001026F
:103EB00003040607080900000000010203040000D3
:103EC00043444300E43E00080000002038000000A6
:103ED000D00100081C3F000838000020780E0000C8
:103EE000EC010008000000000000000001000000DC
:103EF00010000000000000000024F400C03E000894
:103F0000020000009F2F0008412F00081D2F00080D
:0C3F1000E53000089F31000800000000B0
:040000050800019559
:00000001FF
