:020000040800F2
:10000000700E00203102000877290008CB25000877
:1000100075290008B9060008253B0008000000000B
:10002000000000000000000000000000712B00082C
:10003000E90700080000000085290008732B00086C
:100040004B0200084B0200084B0200084B0200085C
:100050004B0200084B0200084B0200084B0200084C
:100060004B0200084B0200084B0200084B0200083C
:100070004B0200084B0200084B0200084B0200082C
:100080004B0200084B0200084B0200084B0200081C
:100090004B0200084B0200084B0200084B0200080C
:1000A0004B0200084B0200084B0200084B020008FC
:1000B0004B0200084B0200084B0200084B020008EC
:1000C0004B0200084B0200084B0200088929000877
:1000D0004B0200084B0200084B0200084B020008CC
:1000E0004B0200084B0200084B0200084B020008BC
:1000F0004B0200084B0200084B0200084B020008AC
:100100004B0200084B0200084B0200084B0200089B
:100110004B0200084B0200084B0200084B0200088B
:100120004B0200084B0200084B0200084B0200087B
:100130004B0200084B0200084B0200084B0200086B
:100140004B0200084B0200084B0200087929000806
:100150004B0200084B0200084B0200084B0200084B
:100160004B0200084B0200084B0200084B0200083B
:100170004B0200084B0200084B0200080000000080
:100180004B0200084B02000800F002F800F040F8B3
:100190000AA090E8000C82448344AAF10107DA45E2
:1001A00001D100F035F8AFF2090EBAE80F0013F0F4
:1001B000010F18BFFB1A43F001031847843A0000EF
:1001C000A43A0000103A24BF78C878C1FAD8520780
:1001D00024BF30C830C144BF04680C6070470000C1
:1001E0000023002400250026103A28BF78C1FBD840
:1001F000520728BF30C148BF0B6070471FB503F0DE
:100200000BFD9DE8030000F079F91FBD10B510BD8E
:1002100000F0D0F91146FFF7F1FF03F095FC00F074
:10022000EEF903B4FFF7F2FF03BC00F01FFA000081
:100230000948804709480047FEE7FEE7FEE7FEE77A
:10024000FEE7FEE7FEE7FEE7FEE7FEE704480549B6
:10025000054A064B70470000112C00088901000870
:1002600070080020700E0020700A0020700A002024
:1002700070B5064600F026F9056806F10B0020F07F
:100280000704B4429CBF002070BD2B466A68BAB117
:100290001068A04210D304F1080188423CBF5068A6
:1002A000586007D35168101941601168091B01603B
:1002B00058601460101D70BD13465268002AE7D1C3
:1002C0002146284600F006F90028DED170BD70B541
:1002D0000446051F00F0F6F80068002C14BF4468BF
:1002E00070BD002C18BFAC423CBF20466468F8D3F8
:1002F00001680A18AA4218BF456003D12A6805465A
:100300001144016028684119A1421CBF6C6070BD96
:100310006168696021680844286070BD53EA020C76
:1003200000F069802DE9F04B4FF00006002B1FBF55
:10033000B3FA83F503FA05F424FA05F65E4012BF1A
:100340001643B2FA82F502FA05F4C5F120051EBF84
:1003500022FA05FC44EA0C04203556EA044C4FEA24
:10036000144418BF641C4FF000084FF0000990427D
:1003700071EB030C39D3002919BFB1FA81F701FAE7
:1003800007F6B0FA80F700FA07F6C7F120071EBF9C
:1003900020FA07FC46EA0C062037B6FBF4FCA7EB74
:1003A0000507103F07F01F0BCBF120060CFA0BFBE3
:1003B0002CFA06F644BFB3460026202FA4BF5E46A3
:1003C0004FF0000B5BEA060C08BF4FF0010B19EB76
:1003D0000B09ABFB027C48EB0608C01B06FB02CCFA
:1003E0000BFB03CC71EB0C01C1E70B460246414607
:1003F0004846BDE8F08B13B54FF000004FF0000108
:10040000AFF30080BDE81C40704710B5203AC0F043
:100410000B80B1E81850203AA0E81850B1E8185005
:10042000A0E81850BFF4F5AF5FEA027C24BFB1E842
:100430001850A0E8185044BF18C918C0BDE81040B3
:100440005FEA827C24BF51F8043B40F8043B08BFBC
:100450007047D20728BF31F8023B48BF11F8012B83
:1004600028BF20F8023B48BF00F8012B70474FF02F
:10047000000200B5134694469646203922BFA0E8F4
:100480000C50A0E80C50B1F12001BFF4F7AF090700
:1004900028BFA0E80C5048BF0CC05DF804EB8900F1
:1004A00028BF40F8042B08BF704748BF20F8022B34
:1004B00011F0804F18BF00F8012B7047704770474C
:1004C00070470000004870471808002070477047C8
:1004D0007047704738B504460A4600206946AFF3B6
:1004E0000080002808BF38BD02460099204600F071
:1004F0003FF8012038BD012000F054B8F8B5AFF343
:100500000080054600200C46102000BF0646A819B2
:10051000A0420DD9324669460020AFF300800700A3
:1005200008BF00F03FF80098A04218BF0546C41964
:10053000FFF7C8FF05600746F01D20F007004619C9
:10054000284600F00AF8B44208BFF8BDA21B3146A5
:100550003868BDE8F84000F00BB800210160C0E940
:1005600001107047102070470048704710080020A5
:10057000034640688C46002818BF88423CBF0346AB
:100580004068F8D318681844884207D00CF103007B
:1005900020F00700001D411A521A0146081D0A608A
:1005A000FFF795BE10B500F039F8BDE8104000F037
:1005B0002FB870477546FFF7D7FFAE46050069466E
:1005C000534620F00700854618B020B5FFF73EFEE1
:1005D000BDE820404FF000064FF000074FF0000844
:1005E0004FF0000B21F00701AC46ACE8C009ACE8C5
:1005F000C009ACE8C009ACE8C0098D46704710B529
:100600000446AFF300802046BDE81040FFF709BE66
:10061000002801D000F02AB87047000010B501286A
:1006200005D0002103A000F027F8012010BD09A18A
:10063000F8E7000053494752544D454D3A204F7555
:1006400074206F662068656170206D656D6F7279CA
:10065000000000003A2048656170206D656D6F7282
:100660007920636F72727570746564000149182097
:10067000ABBEFEE72600020070B505460C460A2018
:1006800000E06D1C00F011F835B128780028F8D191
:1006900002E0641C00F009F814B120780028F8D1B9
:1006A000BDE870400A20AFF3008008B569468DF8B8
:1006B00000000320ABBE08BDFEE7000070B5054694
:1006C000D0F87C03C46994F84E0003281BD004289A
:1006D00018D1217B284602F0E8FD012812D1217BA8
:1006E000284602F0DEFDA16A814214D0628B82426C
:1006F00011D2091AA162216A084420625FF0030046
:1007000084F84E0070BD237B628B2846216A02F07C
:10071000A3FA0420F4E7002084F84E00284602F0F3
:10072000FFFB70BDF8B50646D0F87C030125C4690F
:1007300094F84D0001280AD0022807D1617B304689
:1007400002F0B3FD012811D002281AD0F8BD228B87
:10075000606A0095637B904200D882B23046E169BE
:1007600002F08AFA022084F84D00F8BD208B626AFC
:100770000021824208D9121A6262E3691844E061DA
:1007800003D084F84D50F8BD616284F84D103046B6
:1007900002F0C9FBF8BD000010B500224FEA0201CB
:1007A00000EB8203521CC3F884130F2AF8D30022F3
:1007B0004FF400738418521C84F81C119A42F9D328
:1007C0000170417001228270C0F8C4130276402388
:1007D0008371417680F81C1380F81D2380F81F1365
:1007E00080F81E13002010BD704772B6FEE7A122EC
:1007F0000274212242740022428282820722C28233
:1008000002F0B5BB90F83510022903D08021416574
:1008100001207047052180F835100068016821F03B
:10082000010101600020704770B5044600F00CF92A
:100830000546601C02D004480078044400F004F926
:10084000401BA042FAD370BD100000202DE9F84FE4
:10085000DFF8BCA1002201250AF1040B03264FF0AA
:100860000F090BF1040E00BF0B6805FA02F42340D8
:10087000A34270D10F7907F00307012F01D0022F97
:1008800016D187684FEA420806FA08FC27EA0C07E7
:10089000D1F80CC00CFA08FC4CEA070CC0F808C0F0
:1008A0004768A7430C79C4F3001494403C43446068
:1008B0000C79E443A4070AD0C4684FEA420C06FA54
:1008C0000CF7BC438F6807FA0CF72743C7600C7915
:1008D00004F00304022C12D1D40800EB840CDCF8E1
:1008E00020405707FF0E09FA07F824EA0804D1F858
:1008F000108008FA07F848EA0408CCF82080046859
:100900004FEA420C06FA0CF7BC430F7907F00307D5
:1009100007FA0CF7274307604C6814F4403F70D087
:100920003C4C276847F480472760246822F003077F
:1009300004F480440094384C07EB040CDCF80848BD
:1009400097074FEA177809FA08F7BC43334FB842C4
:1009500002D1002724E054E0314FB84201D10127F1
:100960001EE0304FB84201D1022719E02E4FB842A5
:1009700001D1032714E02D4FB84201D104270FE025
:100980002B4FB84201D105270AE02A4FB84201D1C6
:10099000062705E0284FB84201D1072700E00827C5
:1009A00007FA08F72743CCF80878DAF800405746EA
:1009B000D1F804C09C435FEACC3C00D51C433C60AA
:1009C000DBF800405F46D1F804C09C435FEA8C3CF2
:1009D00000D51C433C60DEF800407746D1F804C0E7
:1009E0009C435FEACC2C00D51C433C60084F0C377D
:1009F0003C68D1F804C09C435FEA8C2C00D51C43B2
:100A00003C60521C102AFFF42FAFBDE8F88F0000A5
:100A1000003C0140443802400030014000000240E8
:100A20000004024000080240000C02400010024096
:100A30000014024000180240001C02400AB181610B
:100A400070470904FBE70000014880687047000018
:100A500010000020D0F8000302F0F5BBD0F800032E
:100A600002F0FBBB006802F09FBD01EB410202EB0C
:100A7000C10100EB810090F86000704701EB41027A
:100A800002EBC10100EB8100006D704710B5044618
:100A900090F8F802012809D0012084F8F8022068B3
:100AA00002F091FD002084F8F80210BD022010BD74
:100AB0002DE9FE430546DDE90B7095F8F842DDF8B7
:100AC00028C0012C1ED001EB410404EBC1044FF0FF
:100AD000010905EB840485F8F892002684F83D604E
:100AE00084F83830A4F8400084F8391084F83F7056
:100AF00002F07F0884F83A805FEA026805D584F83E
:100B00003B9004E00220BDE8FE8384F83B6084F85B
:100B10003CC0CDF800C0CDE90170286802F0C0FDEE
:100B200085F8F862EFE770472DE9F00301EB410427
:100B3000DDE906C9DDE9087504EBC10400EB8404B6
:100B4000022684F83B2084F83F30BCF1000F0AD025
:100B500084F8426000256BB1012B2FD0022B12D0FC
:100B6000032B16D10FE04FF0030884F8428084F87D
:100B70003D50EFE7BCF1010F0BD152B9DFB90122B3
:100B800084F8552003E0B2B194F85420B2B184F84F
:100B90004260C4F84490E76484F86050256584F8A6
:100BA000391084F86150027C04F138010068BDE816
:100BB000F00302F0F6BD94F85520E7E784F84250C0
:100BC000E7E72DE9F04106680446304602F0F7FCFD
:100BD000012875D1206802F000FF002870D020683D
:100BE00002F0FBFE800203D521684FF4001048613B
:100BF000206802F0F2FEC00203D521684FF4801095
:100C00004861206802F0E9FE400103D521684FF0F9
:100C100080604861206802F0E0FE800702D521680C
:100C200002204861206802F0D8FE800015D52168B6
:100C30004FF000504861D6F84004C0070DD1102194
:100C4000304602F09BFC304602F084FC0121206813
:100C500002F0A8FE2046FFF701FF206802F0BDFE6B
:100C6000C00102D5204601F020FC206802F0B5FE4C
:100C7000000705D5204600F0CDF82168082048611E
:100C8000206802F0AAFEC043C0060CD42068816927
:100C900021F010018161204601F051FC206881693A
:100CA00041F010018161206802F097FE800123D598
:100CB000206802F072FD074600254FF0010814E09D
:100CC0001AE005F00F0108FA01F038420CD006EBEB
:100CD0004510D0F80005E9B20004204602D501F025
:100CE00051F901E001F08CFA6D1CA068A842E8D827
:100CF00021684FF000704861BDE8F08170B58AB09E
:100D0000040005D094F8F9022568002618B107E020
:100D100001200AB070BD84F8F862204600F028F87F
:100D2000032084F8F902E86BC00500D4266120682E
:100D300002F0DCFB04F1100128220D466846FFF7A3
:100D400064FB94E80F0002F077FB0121206802F0B9
:100D500067FE282229466846FFF757FB94E80F00F4
:100D600002F0C0FD012084F8F9020020D1E7000064
:100D700030B587B0044614216846FFF778FB206839
:100D8000B0F1A04F38D11D480024016841F00101A5
:100D9000016000681A4D00F0010005904FF40070EA
:100DA000CDE90004694628460294FFF74FFD4FF451
:100DB000E05000900220CDE901040A20CDE9034073
:100DC00069462846FFF742FD0C48001D016841F0C6
:100DD0008001016009481430016841F480410160DC
:100DE0000068002200F4804005901146432000F086
:100DF000B1FB432000F0A0FB07B030BD303802400B
:100E000000000240D0F8000302F098BAD0F80003C6
:100E100002F098BAD0F8000302F04BBA10B50446BD
:100E200090F8F80201280DD0012084F8F802012181
:100E3000206802F073FB206802F086FB002084F833
:100E4000F80210BD022010BD10B5044690F8F8025B
:100E5000012809D0012084F8F802206802F00EFE73
:100E6000002084F8F80210BD022010BD70B5040007
:100E700025D094F83D00002520B984F83C50204648
:100E800000F0B8F8242084F83D002068016821F0C3
:100E9000010101602068016841F40041016020689F
:100EA000016821F40041016000F0ECFC4D4A6168EA
:100EB000914201D84C4900E04C49884201D20120BE
:100EC00070BD4B492368B0FBF1F15E6826F03F0628
:100ED0000E435E606368934206D94FF4967359439C
:100EE0004FF47A73B1FBF3F12368491C1E6A26F0B4
:100EF0003F06314319626168914210D84900401E93
:100F0000B0FBF1F2521CC2F30B02042A01D20420FE
:100F100022E0B0FBF1F0401CC0F30B001CE0A26823
:100F2000F2B301EBC10303EB0116431EB3FBF6F36F
:100F30005B1C43F480431B0549D092B301EBC10213
:100F400002EB0111401EB0FBF1F0401CC0F30B009E
:100F500040F4804040F400402168CA694CF6FF73B9
:100F60009A431043C861D4E907100143206802681E
:100F700022F0C00211430160D4E90301014320685B
:100F8000826848F2FF339A4311438160D4E9050136
:100F900008432168CA6822F0FF021043C86001E0DC
:100FA0000EE016E02068016841F00101016025644F
:100FB000202084F83D00256384F83E50002070BD59
:100FC00001EB4106431EB3FBF6F35B1CB3E70120C4
:100FD000C2E701EB4101401EB0FBF1F0401CC0F341
:100FE0000B00B7E7A086010080841E0000093D00C9
:100FF00040420F0010B586B0044614216846FFF742
:1010000036FA14492068884221D113480021026829
:1010100042F002020260006800F0020005904FF406
:1010200010700090122001900120CDE902010420EF
:10103000049069460948FFF709FC07481030016829
:1010400041F400110160006800F40010059006B042
:1010500010BD00000054004030380240000402403F
:101060002DE9FF4104460068816800917749784E78
:101070004FF04027884201D1324600E03A4692685C
:10108000019240688846029001D1304600E038461F
:101090004068039060684FF00105B0F5007F1CD0F8
:1010A000D8B1900705D50398000602D5204601F077
:1010B000BDFA0098C0070FD0029840067FD521687E
:1010C0002046CA68E16A8B1CE3620A80618E491E71
:1010D0006186618E002967D071E00098800719D57C
:1010E0000298000616D5616A20468A1C6262226850
:1010F0000988D160618D491E6185618D51B9016892
:101100004A6822F0A0024A60418E19B980F8415025
:1011100000F0A0F80198C00705D00398400602D55A
:10112000204601F053FA0198400622D50398800624
:101130001FD52168414501D1304600E0384640685E
:1011400020F0600101D1304600E03846416020685F
:10115000416821F0A00141602068C1688068019069
:1011600084F84150606C40F002006064204600F05A
:1011700072F80098000767D50298800664D5206849
:10118000416821F0A00141602168414501D130460C
:1011900000E03846406820F0600000D03E467060B5
:1011A00020688068009043E001684A6822F060028D
:1011B0004A60418D19B980F8415000F04BF8009811
:1011C00040061ED5029880061BD52068416821F094
:1011D000600141602168414501D1304600E0384658
:1011E000406820F0A00101D1304600E0384641605F
:1011F00084F84150606C40F002006064204600F0CA
:101200002AF8019800071FD5039880061CD521688D
:10121000414501D1304600E03846406820F0A0004A
:1012200000D03E4670602068416821F06001416056
:1012300084F84150606C40F00400606404B02046C3
:10124000BDE8F04100F007B8BDE8FF81003800407C
:1012500000340040704770472DE9F047040005D086
:1012600094F841004FF0000818B109E00120BDE8F2
:10127000F08784F8408051486063204600F0A6F86B
:10128000022684F841602068C16940F6BF77B943FF
:10129000C1612068066260694FF4007902282FD08E
:1012A000E06870B12025A068202800D86D000120DA
:1012B00000F082F9216949451FD1E16819B1A900FF
:1012C00002E01025EFE7E900B0FBF1F000EB800051
:1012D00061694000B0FBF1F0401D0A21B0FBF1F064
:1012E00000F00101401A40080902821EFE2A09D3BB
:1012F000606C40F010006064B8E7B0FBF5F0E5E723
:101300000220002122690843024320680262D4E9D6
:1013100001010843A269E168114308432168CA69D1
:10132000BA43104340F40060C861206A01283AD1F2
:101330002348606323482168234A4FF040238142B9
:1013400001D1114600E01946C96921EA070101D11E
:10135000154600E01D46E9612168814201D1114630
:1013600000E019460E622568854201D1114600E071
:101370001946C9698EB2616849451BD0D1B10021B7
:101380002789B4F80CC047EA0C07B4F818C04CEA37
:10139000010C47EA0C07B9B2314341F400618542C0
:1013A00000D01A46D161C4F84480012084F841007D
:1013B00000205CE74FF48071E2E700008D26000812
:1013C00061100008003800400034004070B58AB059
:1013D000054614216846FFF74AF800240594069450
:1013E000079408942149286888423CD1012005903F
:1013F000C0200225CDE9060505A800F00BF908B1CB
:10140000FFF7F3F91A48016841F4004101600068F0
:1014100000F40040099016481038016841F00101BD
:101420000160016801F001010991016841F00401C6
:1014300001600068062600F004000990102000906A
:10144000CDE90154CDE9034669460A48FFF7FEF9A4
:101450004FF4A4500090CDE90154CDE9034669460C
:101460000548FFF7F3F90AB070BD0000003C0040EA
:1014700040380240000002400008024070477047B8
:101480000248816802781144816070471000002092
:101490000B4810B5016841F400710160016841F426
:1014A00080610160016841F480710160032000F0F7
:1014B00071F8002000F006F800F024F8002010BDBC
:1014C000003C024070B50D4D04464FF47A71287807
:1014D000B1FBF0F00A490968B1FBF0F000F03EFD05
:1014E00048B9102C07D200222146501E00F032F8D5
:1014F00000206C6070BD012070BD00001000002055
:101500001C0000200B4882B0016841F4804101605A
:10151000006800F4804000900648001F016841F018
:1015200080510160006800F080500090072002B0F8
:1015300000F030B844380240002809DB00F01F02F8
:10154000012191404009800000F1E020C0F8001125
:1015500070470000F0B40E4B1B680C46C3F3022327
:10156000C3F10705042D00D90425191D072901D24F
:10157000002300E0DB1E012606FA05F1491E21408A
:1015800099409E40761E16403143F0BC02F0CBBA23
:101590000CED00E0064900F0070208684FF6FF0373
:1015A000184040EA0220034A1043086070470000D8
:1015B0000CED00E00000FA0501460020012907D1EA
:1015C0001049096811F4000103D0012900D10E4827
:1015D00070470C48001F01680068490200F03F0096
:1015E00001D50A4900E00A49064AB1FBF0F07C3215
:1015F0001168C1F3881141431068C0F30270B1FB58
:10160000F0F07047083802400080BB0000127A00FA
:101610000024F4002DE9F843054600684FF0010965
:10162000C1074FF0000601D1400727D5DFF80C8134
:10163000C8F86860FFF708FA0746414C05E000BFAC
:10164000FFF702FAC01B022857D820680001F7D420
:1016500068688101287A41EA00703949843108605C
:10166000C8F86890FFF7F0F9074604E0FFF7ECF9D7
:10167000C01B022841D820680001F7D528788007D0
:1016800052D52F484030016841F080510160006818
:101690002C4C00F080500090206840F48070206056
:1016A000FFF7D2F9074604E0FFF7CEF9C01B022886
:1016B00023D82068C005F7D5214C7034206810F479
:1016C000407020D0A98901F4407181421BD020686C
:1016D0001D4920F44070C1F800900E602060206821
:1016E000C00710D0FFF7B0F9064641F2883707E08F
:1016F000FFF7AAF9801BB84202D90320BDE8F8839E
:1017000020688007F4D5E9680D48C1F3012208304C
:10171000032A0BD0016821F4F81101602068A9891F
:10172000C1F30B01084320600020E7E70268074B84
:1017300022F4F81219400A430260EFE70000474222
:101740000038024000700040400E4742FFFCFF0F8F
:101750002DE9F0470E46050065D0DFF81481D8F872
:101760000000F7B200F00700B04207D288F800701E
:10177000D8F8000000F00700B04254D128683D4C72
:10178000810712D5400703D5206840F4E05020605F
:101790002878000703D5206840F460402060206866
:1017A000A96820F0F000084320602878C0072DD0F9
:1017B000304968680839012812D0022813D003285C
:1017C00011D00968890700292DDA216821F0030169
:1017D00001432160FFF738F9814641F2883A0EE073
:1017E00009688903EFE709688901ECE7FFF72CF93D
:1017F000A0EB0901514502D90320BDE8F08720681C
:10180000696800F00C00B0EB810FEFD1D8F8001040
:10181000404601F00701B14207D90770006800F0A7
:101820000700B04201D00120E7E72878400705D53E
:101830002068E96820F4E050084320602878000719
:1018400006D52068296920F4604040EAC100206084
:1018500000F028F82168084AC1F30311515CC84020
:101860000649086006480068FFF72CFE0020C4E720
:10187000003C024008380240223C00081C000020C6
:10188000140000200448054900680968044AC1F3AF
:101890008221515CC84070471C000020083802407B
:1018A000323C0008154810B5006810F00C021448CE
:1018B00013D04110042A0FD0082A0ED10F4C241F38
:1018C0002268236802F03F025B0207D52068C0F35C
:1018D0008810A0FB010106E0084610BD2168C1F395
:1018E0008811A1FB00010023FEF718FD2168C1F358
:1018F0000141491C4900B0FBF1F010BD083802401D
:101900000024F4002DE9F84F04006ED02078DFF8B1
:101910004C93C007A9F104054AD009F104000168FD
:10192000C1F38101012908D00068C0F381000228B9
:101930000AD1D9F80000400206D52868800337D5BF
:1019400060680028E1D033E06068B0F5803F10D0D7
:10195000B0F5A02F286810D020F4803028602868C7
:1019600020F4802028606068A8B1FFF76DF8064673
:101970000DE0286840F48030F4E740F480202860CF
:10198000F7E700BFFFF760F8801B642873D828686A
:101990008003F7D50CE0FFF757F8064605E000BFD7
:1019A000FFF752F8801B6428F0D828688003F7D42A
:1019B0002078DFF8AC8280074FF0000A3ED5A748B8
:1019C000001D016811F00C0F08D00068C0F3810001
:1019D00002280BD1D9F80000400207D428688007FC
:1019E00016D5E068012800D112E033E1E068B8B113
:1019F0000120C8F80000FFF727F8064605E000BF01
:101A0000FFF722F8801B0228C0D828688007F7D586
:101A10002868216920F0F80040EAC10028600DE044
:101A2000C8F800A0FFF710F8064604E0FFF70CF82E
:101A3000801B02281FD828688007F7D42078000769
:101A400022D5864F87486169703771B101210160E5
:101A5000FEF7FAFF064604E0FEF7F6FF801B0228B9
:101A600009D838688007F7D50EE0C0F800A0FEF767
:101A7000EBFF064605E082E0FEF7E6FF801B02284A
:101A80007DD838688007F7D42078400768D5DFF81C
:101A9000CCB100270BF13C0BDBF80000C0000BD4ED
:101AA000DBF8001041F08051CBF80010DBF80000AB
:101AB000012700F0805000906B4E3068C00510D4B4
:101AC000306840F480703060FEF7BEFF009005E0A3
:101AD000FEF7BAFF0099401A022850D83068C005B6
:101AE000F6D55E4EA0686C3601280FD00528306808
:101AF00010D020F001003060306820F00400306029
:101B0000A068B8B1FEF7A0FF00900FE0306840F089
:101B10000100F4E740F004003060F7E7FEF794FFBF
:101B20000099411A41F28830814266D830688007B6
:101B3000F4D50EE0FEF788FF009007E0FEF784FF83
:101B40000099411A41F28830814256D830688007A6
:101B5000F4D42FB1DBF8001021F08051CBF8001045
:101B6000A069C8B33D49091D0968C1F38101022973
:101B70004AD00228504607D0C8F8600000E03CE098
:101B8000FEF762FF04463BE04746C8F86000FEF7F8
:101B90005BFF064605E000BFFEF756FF801B0228EC
:101BA0002BD828688001F7D4D4E907010843A16A3B
:101BB0002E4A490802EB0141626A41EA8211084358
:101BC00094F82C1040EA0161C9F800100120386631
:101BD000FEF73AFF044606E03EE000BFFEF734FFA2
:101BE000001B022809D828688001F7D534E000BF1F
:101BF000FEF72AFF001B022802D90320BDE8F88F58
:101C000028688001F4D427E00128F7D0D9F8000033
:101C1000E26900F4800191421CD1226A00F03F0188
:101C2000914217D147F6C071626A0140B1EB821F41
:101C300010D1A26A4FF0FF3300F4403103EB52029F
:101C4000B1EB024F06D194F82C1000F07060B0EBAD
:101C5000016F01D00120D1E70020CFE70438024016
:101C600000004742800E4742007000400000FFFF26
:101C70007047000038B5016804464A688868C04368
:101C8000430606D5C30704D1D3435B0601D4216CB8
:101C900005E0830708D4D3431B0605D4616C01B06B
:101CA0002046BDE830400847830603D5430601D5EA
:101CB000C30551D4D3439B064ED443060AD494F8AB
:101CC0005130032B49D0636D43F004036365CB6847
:101CD0008B680093830609D4636D43F00103636549
:101CE0008B6800930B6823F040030B60C00506D49B
:101CF000606D40F008006065206880680090606D4D
:101D0000002829D02068416821F0E00141600120CD
:101D100084F85100900701D4D00722D02068416890
:101D200021F003014160114DE06C40B10565E06CAC
:101D3000FEF768FD18B1606D40F040006065A06C72
:101D4000002809D00565A06CFEF75CFD002803D0D3
:101D5000606D40F04000606538BDC86888680090DC
:101D600038BD2046FFF784FF38BD0000112A000867
:101D700070B5040009D0606A002540B12561656135
:101D8000A56294F8510040B10CE0012070BD60687C
:101D9000B0F5827FF4D0E561F2E784F85050204638
:101DA00000F044F8022084F851002068016821F016
:101DB00040010160A088218900F4827001F404418F
:101DC0000843A18901F400610843217C01F002016C
:101DD0000843217D01F001010843218B01F40071CA
:101DE0000843217F01F03801084394F8201001F0E6
:101DF00080010843218D01F40051084321680860E7
:101E0000A069042101EA104094F8241001F01001A7
:101E10000843216848602068C16921F40061C161FC
:101E20006565012084F85100002070BD10B586B0B2
:101E3000044614216846FEF71AFB174920688842B9
:101E400027D116480021026842F4805202600068DF
:101E500000F48050059011481438026842F00102E5
:101E60000260006800F001000590E0200090022070
:101E7000CDE901010520CDE9031069460848FEF7C8
:101E8000E5FC002211462320FFF764FB2320FFF727
:101E900053FB06B010BD0000003001404438024042
:101EA0000000024030B590F850300024012B0BD0D8
:101EB000012380F85030002341B13AB190F85150DD
:101EC000012D05D002242FE0022030BD01242BE09B
:101ED000032580F85150436501638286C28683637F
:101EE0008387C3870364C16809B1114900E01149C0
:101EF00041648168B1F5004F09D101680A6822F098
:101F000040020A6001680A6842F480420A6001687F
:101F10004A6842F0A0024A6001680A68520603D487
:101F20000A6842F040020A6080F85030204630BD16
:101F3000792A0008992A0008064910B5884208D174
:101F4000C88E002805D10120FEF76EFC0249002052
:101F5000087010BDDC0000200000002010B5401EFD
:101F6000B0F1807F01D3012010BD4FF0E02460610B
:101F70000F21601701F0D7FD0020A061072020612C
:101F8000002010BD2DE9F047074600680E4600EB23
:101F90004114D4F808054FF00409420701EB410051
:101FA00000EBC6004FF0050A4FF0100807EB800564
:101FB00008D5C4F80895D4F80C0540F00200C4F820
:101FC0000C0553E0D4F80805C0050DD54FF480701A
:101FD000C4F80805072085F86100D4F80C0540F026
:101FE0000200C4F80C0529E0D4F80805800601D5E4
:101FF000202039E0D4F8080501074FF008000AD581
:10200000D4F80C1541F00201C4F80C1585F861A054
:10201000C4F808850FE0D4F80815490512D5D4F89E
:102020000C1541F00201C4F80C1585F86100C4F8E4
:1020300008854FF48060C4F808053146386801F01F
:10204000C2FA13E0D4F8080500060FD5D4F80C0541
:1020500040F00200C4F80C05062085F86100314606
:10206000386801F0B0FA8020C4F80805D4F80805F3
:10207000800510D5D4F80C0540F00200C4F80C051A
:10208000314604F5A164386801F09DFA4FF4007000
:102090002060BDE8F087D4F808054FF00001C007C4
:1020A0004FF001024BD0386930B1A86CD4F810352C
:1020B000C3F31203C01A286585F86120E965C4F8E6
:1020C000082595F83F0030B1022804D0032811D02C
:1020D000012818D023E0D4F80C0540F00200C4F821
:1020E0000C05314604F5A164386801F06CFAC4F8B7
:1020F000008014E0D4F8000540F00050C4F800055A
:1021000085F8602007E085F8602095F8540080F09D
:10211000010085F8540031463846FEF704FD386961
:10212000012806D1B5F84010A86CB0FBF1F0C0074B
:10213000AFD015F8540F80F001002870A9E7D4F84B
:10214000080580073BD5D4F80C0520F00200C4F840
:102150000C0595F86100022301280AD005280BD050
:1021600006280CD008280AD003280FD0072818D03A
:102170001CE085F8602019E085F860A016E0E86DA5
:10218000401CE865022801D9E9650DE085F860305A
:10219000D4F8000520F0804040F00040C4F800056D
:1021A00004E0E86D401CE86585F86090C4F80835E7
:1021B00095F8602031463846FEF7B5FC69E7D4F85B
:1021C0000805C006BAD595F83F00032803D020B112
:1021D000022802D011E0E96505E0E965386960B9D7
:1021E000032085F86100D4F80C0540F00200C4F823
:1021F0000C053146386801F0E6F9C4F8088548E76F
:102200002DE9F047026802EB4114D4F80825530782
:102210004FF0040209D5C4F80825D4F80C0540F0A5
:102220000200C4F80C05BDE8F087D4F8083501EBCE
:1022300041079E0607EBC1054FF0000300EB850543
:102240004FF0020C15D52022C4F8082595F83D2042
:10225000012AE8D185F83D3085F860C0D4F80C2516
:1022600042F00202C4F80C250068BDE8F04701F016
:10227000AAB9D4F80865B6050DD5D4F80C2542F0F6
:102280000202C4F80C25006804F5A16401F09BF972
:102290004FF400706DE0D4F808654FF040075FEA36
:1022A000C6784FF0010617D0EB65D4F80825520622
:1022B00003D585F83D60C4F80875D4F80C2542F0C4
:1022C0000202C4F80C25006804F5A16401F07BF952
:1022D000266085F86160A6E7D4F808855FEA48685B
:1022E00011D585F8612085F83D60EB65D4F80C25A3
:1022F00042F00202C4F80C25006804F5A16401F064
:1023000062F927608FE7D4F808754FF005095FEA96
:1023100007784FF008070DD5C4F80875D4F80C25D8
:1023200042F00202C4F80C25006801F04CF985F86F
:10233000619078E7D4F808854FF0100A5FEAC86822
:1023400019D50322EB6585F8612095F83D2022B967
:1023500095F83C200AB985F83D60D4F80C2542F088
:102360000202C4F80C25006804F5A16401F02BF901
:102370005046206057E7D4F808855FEA08681FD503
:10238000066956B1EE6D761CEE65022E12D9EB652C
:1023900085F86020FEF7C7FB0EE0062285F8612075
:1023A000D4F80C2542F00202C4F80C25006801F0B4
:1023B0000AF901E085F860C08020C4F8080532E71A
:1023C000D4F808855FEA485812D5D4F80C2542F0B5
:1023D0000202C4F80C25006804F5A16401F0F3F8CA
:1023E000C4F800A04FF48060206085F861701AE79F
:1023F000D4F80875BF0785D5D4F80C7527F0020707
:10240000C4F80C7595F86170012F0AD0032F2CD0F9
:10241000042F2AD0052F2BD0062F2CD0082F2AD0FE
:102420003CE085F8606095F83F20022A01D0032A3D
:1024300034D102692AB995F8552082F0010285F855
:1024400055200269012A29D1EA6C3AB3B5F8403027
:102450001A44521EB2FBF3F2D2071FD095F8552052
:1024600082F0010285F8552018E085F860C015E07B
:1024700085F8609012E0EE6D761CEE65022E03D9B1
:10248000EB6585F8602009E085F860C0D4F8002588
:1024900022F0804242F00042C4F80025C4F808C58A
:1024A00095F86020FEF73FFBBDE67CB50468054665
:1024B000D4F840040190D4F8400420F02E0000909D
:1024C0000198800709D50198C00702D02846FEF779
:1024D000C1FA009840F0020000900198000724D54E
:1024E000009840F008000090019840071AD5A869AC
:1024F000022803D0E86801280CD00FE00198C0F34F
:1025000041400228286803D0012101F04BFA05E080
:102510000221FAE74EF66020C4F804042846FEF7CC
:1025200075FC02E02846FEF76DFC019880060098D5
:1025300002D540F020000090C4F840047CBD2DE995
:10254000F041024600680646016AC1F3434301F0C8
:102550000F07C1F30A15022B31D1002D2FD007EB45
:10256000470101EBC70102EB8104616C002926D011
:10257000226DE36C2A449A4223D82A4601F031FAAC
:10258000606C28446064206D2844206506EB471089
:10259000D0F81015B4F84020C1F3C941AA420ED1B9
:1025A00000290CD0D0F8001521F0804141F0004105
:1025B000C0F8001514F8540F80F001002070BDE839
:1025C000F081042084F86000F9E7FEE770B5154952
:1025D0000268154B4FF040248A4201D11A4600E0B0
:1025E0002246D568C26A961CC6621580428E521E6B
:1025F0004286428E002A14D102688A4201D11946CD
:1026000000E02146496821F0600100D0234659606E
:10261000418D002905D14FF0010180F84110FEF7EE
:1026200019FE70BD003800400034004070B5416AAA
:10263000144B8A1C426205680988134A4FF04024F3
:102640009D4201D1154600E02546E960418D491EB5
:102650004185418D002914D10168994201D111466B
:1026600000E02146496821F0A00100D022465160D7
:10267000418E002905D14FF0010180F84110FEF78D
:10268000E9FD70BD00380040003400407CB50168B1
:1026900004468868009094F841000125042834D14C
:1026A0000098C00718D04868C043400614D4C968D1
:1026B0002046E26A1180E16A891CE162618E491E4E
:1026C0006186618E41B901684A6822F060024A6001
:1026D00080F84150FEF7D2FE0098400615D52068DC
:1026E0004168C943890610D4416821F06001416006
:1026F0002068C1688068019084F84150606C40F0A7
:10270000020060642046FEF7A6FD94F8410003280D
:1027100034D10098800719D521684868C043000665
:1027200014D4626A20461288CA60616A891C616298
:10273000618D491E6185618D41B901684A6822F049
:10274000A0024A6080F84150FEF799FE0098000709
:1027500014D520684168C94389060FD4416821F027
:10276000A001416020688068009084F84150606C4E
:1027700040F0040060642046FEF76DFD7CBD000063
:1027800020B1002201210248FEF758B90122F9E7E1
:10279000000802402DE9F04F87B014216846FDF78C
:1027A00066FE4E480024016841F010010160016896
:1027B00001F010010591016841F004010160016818
:1027C00001F004010591016841F080010160016898
:1027D00001F080010591016841F00101016001688B
:1027E00001F001010591016841F0020101600168F9
:1027F00001F002010591016841F0080101600068E3
:10280000002200F00800059008213548FEF716F96F
:10281000DFF8D080012211464046FEF70FF9DFF8BD
:10282000C8B04FF21009002249465846FEF706F993
:10283000082601250096CDE90154694628480394ED
:10284000FEF704F80095CDE901546946404603942B
:10285000FDF7FCFF00960226CDE901640527CDE9CE
:10286000034769464046FDF7F1FF4FF49018009585
:10287000CDE9018469461D48FDF7E8FF0420CDE954
:102880000004DFF86CA0694650460294FDF7DEFFB5
:10289000A8020090CDE90164CDE90347694650469E
:1028A000FDF7D4FFCDF80090CDE9015469465846B4
:1028B0000394FDF7CBFF2020CDE90004694658467C
:1028C0000294FDF7C3FF0096CDE9018469460448F0
:1028D000FDF7BCFF07B0BDE8F08F000030380240C4
:1028E0000010024000080240000C024000000240BC
:1028F000000402400E4810B50C4901604FF482718B
:10290000416000218160C1604FF400720161C0E943
:102910000512C1610162416281620A21C162FFF751
:1029200027FA002801D072B6FEE710BD0030014042
:10293000DC00002010B501220B490C4800F05BFCC4
:1029400008B1FDF752FF0A49084800F041FD08B1FF
:10295000FDF74BFF054800F054FD002803D0BDE80B
:102960001040FDF742BF10BD1934000834010020AB
:1029700020000020FEE7FEE70148FEF722B9000034
:102980000C050020704700000148FFF773B90000F4
:10299000DC00002038B504461C4845F6C0510068EC
:1029A000B0FBF1F0642148430090FEF74DF8024679
:1029B00020680099A1B1491E009181688907F8D566
:1029C000416821F0A00141606421204600F028F810
:1029D00018B1606D40F020006065A06828B108E083
:1029E000616D41F020016165EAE72068C168806897
:1029F0000090012084F85100606D0028204602D02C
:102A0000FFF736F938BDFFF797FA38BD1C000020F4
:102A100010B5806B0021C187C186FFF729F910BD71
:102A200038B504461248134B0068B0FBF3F04FF47E
:102A30007A73584300906068B0F5827F0DD10B46E1
:102A4000009200228021204600F036F870B1606DBF
:102A500040F020006065032038BD009830B1401E72
:102A6000009020688068C0430006F6D5002038BD7D
:102A70001C00002000366E01016B02680988D160DD
:102A8000016B891C0163C18E491EC186C18E00295C
:102A900001D1FFF77FBF7047016B0268097811739E
:102AA000016B491C0163C18E491EC186C18E00297C
:102AB00001D1FFF76FBF70472DE9F8431E469146DD
:102AC00088460446089DFDF7BFFF401B351AFDF7F9
:102AD000BBFF074625480068C0F3CB30684338E0A9
:102AE000701C37D0FDF7B0FFC01BA84203D215B150
:102AF000009860B32CE02068416821F0E00141605B
:102B00006068B0F5827F0BD1A068B0F5004F02D0AD
:102B1000B0F5806F04D12068016821F040010160A8
:102B2000A06AB0F5005F09D12068016821F4005166
:102B300001602068016841F400510160012084F8BF
:102B40005100002084F850000320BDE8F8830025E0
:102B5000401E00902068816838EA010004D00021FE
:102B60004945BDD10020F0E70121F9E71C00002014
:102B70007047FEF785BC000030B593B03021684641
:102B8000FDF775FC14210CA8FDF771FC1E4800250B
:102B9000016841F080510160006800F080501190A0
:102BA0001A48016841F4804101600068022400F481
:102BB0008040119001200090000401908001CDE937
:102BC0000640082008904FF4A870CDE909040720BA
:102BD0000B906846FEF796FE08B172B6FEE70CA9A8
:102BE0000F2081E831004FF4A0500F904FF4805037
:102BF000109005210CA8FEF7ABFD002801D072B69D
:102C0000FEE713B030BD00004038024000700040C5
:102C10000248016841F470010160704788ED00E0EE
:102C200010B500224FF6FF7300EB8204B4F8844322
:102C300024040BD49A4207D002F00F0300EB830068
:102C400041F40041C0F88413D0B210BD521CD2B27E
:102C50000B2AE9D31A46F7E77FB51C46012501AEDA
:102C60000023009586E80E0002232A46214600F044
:102C700094FB04B0002070BD7FB51D4690F81D3355
:102C8000089C03B100240123CDE90031CDE90224E1
:102C900002230022294600F080FB04B0002070BD12
:102CA00070B50446D0F87C03C16920464031FDF779
:102CB0009EFD050004D1D4F8D4230221204690477C
:102CC000284670BD70B50546D0F87C030026C4695F
:102CD000217839B1284600F027F92178284600F0FC
:102CE000A9F92670217B39B1284600F01DF9217B16
:102CF000284600F09FF92673617B39B1284600F021
:102D000013F9617B284600F095F96673D5F87C03CA
:102D1000C06920B1FDF7DBFAD5F87C03C66100205D
:102D200070BDFEB5022205460123114600F060F990
:102D30000646FF2841D0022E3FD20146284600F029
:102D400055FBD0BB5020FDF793FAD5F87C13044611
:102D5000C861200031D05021FDF789FB06EB8600C9
:102D600000EBC60005EB400191F84E03020603D5C7
:102D70006070B1F85003608161782846FFF750FF1A
:102D80002070014695F81D03638903228DE80D002C
:102D900095F81C336278284600F010FB2178002259
:102DA000284600F0D6FA00231A460A21284600F0E9
:102DB0001FF9FF2801D0022801D30220FEBD00EB3D
:102DC000800101EBC00005EB400090F84E130A06AD
:102DD00004D5E173B0F85013618303E0A173B0F838
:102DE0005013218390F856130A0604D5E173B0F806
:102DF0005803608303E0A173B0F858032083A17BDC
:102E00002846FFF70DFF6073E17B2846FFF708FFB8
:102E10002073208B95F81D1302260091CDE90160E7
:102E200095F81C33A27B617B284600F0C7FA608BC3
:102E300095F81D130091CDE9016095F81C33E27BF4
:102E4000217B284600F0BAFA002084F84C000246A4
:102E5000617B284600F07DFA217B0022284600F0A5
:102E600078FA0020FEBD70472DE9F0410546D0F804
:102E70007C0301270026C4694FF0040894F84C0035
:102E800005284AD2DFE800F00305163B4200002780
:102E900043E02122A16C2A7420226A746E82AE82E1
:102EA00007222846EA8200F062F848B9022084F836
:102EB0004C0032E004F140012846FDF798FC20B1B7
:102EC00001282AD084F84C8027E084F84C60A06C5C
:102ED00094F84410027991421FD194F846108279F7
:102EE00091421AD194F845104279914215D1216C42
:102EF0000068814211D12846FFF7B5FF0DE0284652
:102F0000FDF710FC2846FDF7D9FB06E00021284616
:102F100000F00FF808B984F84C603846BDE8F0813D
:102F2000704700207047704710B500F083F900200B
:102F300010BD8278012A07D1022202740122427454
:102F4000002242828182C2820022114600F00FB824
:102F50007FB51C46012501AE0023009586E80E00D2
:102F60002A46214600F019FA04B0002070BD70B561
:102F700004460120A3780546012B0BD0022B08D173
:102F8000204600F06FF858B1032809D0022800D17C
:102F9000A57070BDA160A28125760221A17070BDCF
:102FA000A5700021217670BD7FB51D4690F81D33B8
:102FB000089C03B100240123CDE90031CDE90224AE
:102FC00000231A46294600F0E8F904B0002070BD3D
:102FD0001FB500231446CDE900310822CDE90223B4
:102FE0001A46214600F0D9F904B0002010BD0000B7
:102FF00070B50546002005F54E7500BF00EB800456
:1030000004EBC00405EB4404E67B0A348E4201D095
:10301000FF2909D1A679964201D0FF2A04D1E4798B
:103020009C4206D0FF2B04D0401CC0B20228E5D33E
:10303000FF2070BD0B2907D200EB8100B0F884138C
:10304000C1F30E01C0F884130020704701004FF057
:10305000000004D0012901D0022901D002207047CC
:10306000012070472DE9F84F0125017E04460B260B
:10307000092728464FF007084FF0050A4FF00D09C1
:103080000C2919D2DFE801F0B4060E26313C486065
:103090006B7C899A627904F110012046FFF798FF52
:1030A000022012E06179204600F0FFF8012804D0E8
:1030B000042871D002287FD09AE0207CE18A00F0B9
:1030C000800021B180283AD10320207690E080282A
:1030D00014D02EE0D4F8C403E0812379A2892046DD
:1030E000A168FFF735FF0420EFE72179204600F0C3
:1030F000DCF8012802D0052840D056E0277677E09A
:1031000000906379A2892046A168FFF74DFFD4F8AB
:10311000C403E0810620D8E76179204600F0C5F8B5
:10312000012806D0052807D0022808D0042809D095
:103130005EE084F818805BE00C2020761EE084F8C6
:1031400018A055E0267652E0002223791146204649
:10315000FFF7FEFED4F8C403E0810820B5E721792B
:10316000204600F0A2F8012804D0042824D0052825
:1031700004D03DE084F81890002539E0032537E0BD
:1031800000900022637911462046FFF70DFFD4F826
:10319000C403E0810A2098E70EE06179204600F040
:1031A00084F8012804D00228A8D0042804D01FE005
:1031B000002584F818901BE0267619E0617E491CF2
:1031C000C9B26176022902D82076A07010E0D4F846
:1031D000D423062120469047002565766179204654
:1031E000FFF728FF21792046FFF724FF25700225ED
:1031F0002846BDE8F88F70B50E46040018D084F854
:10320000CC230025C4F87C53C4F8805304F54874DB
:10321000FDF7C2FAE57025706570A570A4F54874D5
:103220000EB1C4F8D463204600F052F8002070BDFF
:10323000022070BD10B5D0F8D003FDF727FCBDE823
:103240001040FFF703BF012180F82013002180F810
:10325000211380F822130846704710B50446012058
:1032600084F82103002084F8200384F823032046F7
:1032700000F08AF821792046FFF7DCFE61792046CC
:10328000FFF7D8FE002010BD10B590F8CC03012840
:1032900002D10846FFF774FAC820FDF7C5FA0020EE
:1032A00010BDD0F8D003FDF7E9BBD0F8D003FDF78F
:1032B000DCBBD0F8C413491CC0F8C41301780B2937
:1032C00005D1D0F87C13002901D0896908477047DF
:1032D00010B5044690F8CC0301281CD10F484FF0DC
:1032E000A0410022C0F80043C4F8D00301600821C7
:1032F00081600121C0E903120221C0E90612FDF735
:10330000FDFC08B1FDF771FA0448FDF7ABFB01467F
:10331000204600F01BF8002010BD00000C05002026
:10332000FEB508AF97E870008DE87000D0F8D003C4
:10333000FDF7BEFBBDE8FE40FFF788BE002180F828
:1033400023137047012180F823137047C0F8C4137A
:103350007047D0F8D00301EB410303EBC10100EB50
:10336000810090F83B1011B180F8542001E080F802
:1033700055200020704710B5D0F8D003FDF74EFD62
:10338000BDE81040FFF762BE10B5D0F8D003FDF7DE
:103390005BFDBDE81040FFF759BE2DE9FF410DF17F
:1033A000280898E8F0008DE8F000D0F8D003FDF789
:1033B000BBFB04B0BDE8F041FFF748BEFEB508AF67
:1033C00097E870008DE87000FFF7AAFF0020FEBDAF
:1033D000002211B1D0F8803313B102221046704799
:1033E0000123C0F88033C0F87813F7E702460020C5
:1033F00092F83C338B4202D982F8241370470220A2
:10340000704710B50446FFF7B6FF01212046FFF7CD
:103410003BFF002010BD000001290AD00548022909
:1034200006D0042903D0052903D1032100E001219E
:10343000017070470C00002070B5044606990A9E82
:10344000049D0D98012916D0E06840F04000E0602E
:10345000204600F02BF8A16B1EB321F48031A1634C
:10346000012D07D1A16841F00601A160A16841F0DA
:103470002001A16070BDA16B21F48031A163E168DE
:10348000094A1140E160E16821F44011E16001283E
:1034900003D1E06840F48010E060204600F006F8B8
:1034A000DEE741F48031DAE7BFFFBDFF08B5002257
:1034B0000D490092009B5B1C00938B420CD8036962
:1034C000002BF7DA0092026942F001020261009AD1
:1034D000521C00928A4201D9032008BD0269D2071A
:1034E000F5D1002008BD0000400D0300816821F0E7
:1034F000010181600020704700EB4110064AC0F8CE
:103500001025D0F8001521F0804141F00041C0F8AD
:1035100000150020704700000000088008B5D0F8B2
:10352000402422F02E020092D20405D4012909D1B0
:10353000009941F4805103E021B9009921F48051B0
:10354000C0F84014002008BD816841F0010181608D
:103550000020704708B50021009110210161064943
:10356000009A521C00928A4201D9032008BD0269C8
:10357000D206F5D4002008BD400D030008B5002296
:103580000092202242EA811101610649009A521CF0
:1035900000928A4201D9032008BD02699206F5D43F
:1035A000002008BD400D0300D0F8080480B2704729
:1035B00008B5D0F840040090C0F3414008BD406910
:1035C00000F00100704710B500EB4111D1F8002563
:1035D000D1F80035C2F381428468DB0FA40600D520
:1035E0001BB34FF47A736AB1022A0BD0D1F80025CD
:1035F00042F08042C1F80025D0F8100410F47F0F8B
:1036000031D00CE0D1F8002542F08042C1F800250D
:103610008268920609D4C06A10F47F0F07D0D1F8EF
:10362000000540F00040C1F80005002010BDD1F8B1
:10363000000520F00040C1F80005D1F8000540F079
:103640000040C1F80005D1F8000520F40040C1F8A1
:103650000005012002E0401C9842E6D8D1F8002580
:10366000002AF8DBE1E7D1F8000520F00040C1F8BE
:103670000005D1F8000540F00040C1F80005D1F880
:10368000000520F40040C1F80005012002E0401CC4
:103690009842CAD8D1F80025002AF8DBC5E7000017
:1036A0002DE9F0431E46DDE90785002700EB4114B4
:1036B0007B1EDDF82490C4F80835D5B1012D33D038
:1036C000022D16D0032D28D05FF00107D0F8183452
:1036D00001F00F0C012101FA0CF10B43C0F8183472
:1036E000816941F00071816111062AD54FF40041D2
:1036F00028E040F29D43C4F80C35130605D500BF01
:10370000D4F80C3543F4807318E0C36BDB05DDD5CA
:10371000D4F80C3543F0600310E040F29D63C4F828
:103720000C351306ECD4D1E740F22523C4F80C3550
:103730001306CBD5D4F80C3543F4C073C4F80C355C
:10374000C4E70021FFF734FFB8F1020F04D10228CB
:1037500002D04FF4003000E000204FF0FE5303EAA7
:1037600086534FF4F04606EAC22213434FF4402238
:1037700002EA85421343C9F30A0213430B4303438E
:10378000C4F80035032D05D1D4F8000540F00050F1
:10379000C4F800053846BDE8F083D0F8140480B2C0
:1037A0007047F8B54C78C56B4FF48073ED0515D5AF
:1037B0000D799DB9012A01D06AB10FE0CD790DB123
:1037C000022D0BD100EB4415D5F80C6526F07006E0
:1037D000C5F80C6502E04D79012D0DD04E697EB122
:1037E0000D8977197F1EB7FBF5F7BFB29F4208D945
:1037F0001F462B020B6104E02146FFF77DFE6EE0C1
:103800000127CB781BB10B897B430B6101E0334669
:103810000E61C3F312056FF0604303EAC7431D4313
:103820008B7A4FF0C04606EA43731D4300EB441306
:10383000C3F8105512B1CC68C3F81445D0F8084449
:10384000D3F8005544F3000425F00055C3F80055A3
:10385000D3F80055641C45EA4474C3F80045D3F816
:10386000004524F080440094CC78002C009C02D0C9
:1038700044F4004401E024F4004444F00044009483
:10388000C3F800455ABBCA784ABB4A693AB3CB79F8
:1038900033B1012B0FD0022B02D0032B17D10AE03A
:1038A000D21CC36AC2F38F029BB293420FD28269C9
:1038B00042F020020AE0D21CD0F81034C2F38F028A
:1038C0009BB2934203D2826942F0806282610022FD
:1038D00000928A8A93B24A78C96800F00FF90020F2
:1038E000F8BD0000F0B50025059F16460446C0F857
:1038F000005E806B40F40010A063A06B20F40020F9
:10390000A063A06B20F48020A063E06BC00501D50C
:10391000012B04D0D4F8000420F0040103E0D4F813
:10392000000440F004012046C4F800141021FFF701
:1039300025FE2046FFF70EFE0020411E07E000BFD7
:1039400004EB4012C2F80815C2F80C55401C864220
:10395000F6D8A5616161E06BC00506D54FF4007033
:1039600060620B48A0620B4804E0802060620A4855
:10397000A0620A48C4F800011FB9A06940F0100015
:10398000A061A06906490843A0610020F0BD0000C5
:10399000000200010003E00080006000E000400041
:1039A000080020A3D0F8002422F00302C0F800246D
:1039B000D0F8002401F003031A43C0F800240129C1
:1039C00002D0022903D006E04BF6803101E041F23B
:1039D0007071C0F804140020704741698069084084
:1039E000704730B503460846940802F003010022F0
:1039F00003F5805303E01D6840F8045B521CA242AB
:103A0000F9D300290BD01C680022D50024FA05F355
:103A1000491E521C090400F8013B090CF5D130BDC8
:103A200070B50446C068002520F0C040E060012960
:103A300001D079B120E0E06840F00050E060012062
:103A4000FCF7F2FE60696D1C10F0010F10D1322DF1
:103A5000F5D30DE0E06840F08040E0600120FCF725
:103A6000E3FE60696D1C10F0010F01D0322DF5D31B
:103A7000322D01D0002070BD012070BD30B504464C
:103A80008068002520F00100A06010212046FFF78B
:103A900075FD2046FFF75EFD5FF0000004EB40116E
:103AA000D1F8002522F0802242F08042C1F80025A2
:103AB000401C0F28F2D900204FF47A7304EB401118
:103AC000D1F8002522F4004242F04042C1F800251E
:103AD0006D1C9D4203D8D1F80025002AF8DB401C5C
:103AE0000F28EBD94FF0FF30C4F814046061A068D0
:103AF00040F00100A060002030BD000010B5029C25
:103B000074B9DB1C9C0800EB0230002300F58050E8
:103B100004E000BF51F8042B02605B1CA342F9D300
:103B2000002010BDFEE70907090E002804DB00F1A4
:103B3000E02080F80014704700F00F0000F1E02052
:103B400080F8141D70470000FDF7A2FCFFF714F881
:103B5000FEF720FE2B482A49002401602A49C0E9CB
:103B600001144FF48041C0E9034144618461C461A0
:103B70000462FDF77BF908B172B6FEE721482349DC
:103B8000543001604915C0E90114C0E903412049DE
:103B9000C0E90514C4610462FDF75EFB08B172B6AA
:103BA000FEE7FEF7A7FEFEF7C5FE1A4C41F2883687
:103BB00001253046FCF738FE1649124825700522CB
:103BC000891C9C30FEF76EF9607002E00120FCF762
:103BD0002BFE20780028F9D13046FCF725FE0D4950
:103BE000084825700522C91D9C30FEF75BF96070FE
:103BF00002E00120FCF718FE20780028D9D0F8E771
:103C00000054004040000020A0860100003C00401D
:103C100000770100000000204FF04070E1EE100A34
:103C200070470000000000000000010203040607C6
:103C3000080900000000010203040000434443009F
:103C4000603C00080000002040000000C4010008A3
:103C5000A03C000840000020300E0000E0010008F9
:103C600000000102030405060708090A000000001D
:103C70000100000010000000000000000024F4001B
:103C80003C3C000802000000232D0008C52C000861
:103C9000A12C0008692E0008232F00080000000056
:040000050800018965
:00000001FF
